{"contracts/CollectorFactory.sol":{"CollectorFactory":{"abi":[{"inputs":[],"stateMutability":"nonpayable","type":"constructor"},{"inputs":[],"name":"CollectorNotFound","type":"error"},{"inputs":[],"name":"InvalidCollectorOwner","type":"error"},{"inputs":[],"name":"InvalidCreator","type":"error"},{"inputs":[],"name":"InvalidProvider","type":"error"},{"inputs":[],"name":"InvalidScore","type":"error"},{"inputs":[{"internalType":"address","name":"owner","type":"address"}],"name":"OwnableInvalidOwner","type":"error"},{"inputs":[{"internalType":"address","name":"account","type":"address"}],"name":"OwnableUnauthorizedAccount","type":"error"},{"inputs":[],"name":"ReputationRequestAlreadyExist","type":"error"},{"inputs":[],"name":"ReputationRequestNotFound","type":"error"},{"anonymous":false,"inputs":[{"indexed":false,"internalType":"address","name":"collector","type":"address"},{"indexed":false,"internalType":"address","name":"collectorOwner","type":"address"}],"name":"CollectorCreated","type":"event"},{"anonymous":false,"inputs":[{"indexed":false,"internalType":"address","name":"collector","type":"address"},{"indexed":false,"internalType":"bool","name":"active","type":"bool"}],"name":"CollectorCreatorChanged","type":"event"},{"anonymous":false,"inputs":[{"indexed":false,"internalType":"address","name":"collector","type":"address"},{"indexed":false,"internalType":"bool","name":"validity","type":"bool"}],"name":"CollectorValidityChanged","type":"event"},{"anonymous":false,"inputs":[{"indexed":true,"internalType":"address","name":"previousOwner","type":"address"},{"indexed":true,"internalType":"address","name":"newOwner","type":"address"}],"name":"OwnershipTransferred","type":"event"},{"anonymous":false,"inputs":[{"indexed":false,"internalType":"address","name":"reputationProvider","type":"address"},{"indexed":false,"internalType":"bool","name":"active","type":"bool"}],"name":"ReputationProviderChanged","type":"event"},{"anonymous":false,"inputs":[{"indexed":false,"internalType":"address","name":"collector","type":"address"},{"indexed":false,"internalType":"address","name":"dataProvider","type":"address"},{"indexed":false,"internalType":"uint256","name":"timestamp","type":"uint256"}],"name":"ReputationRequestCreated","type":"event"},{"anonymous":false,"inputs":[{"indexed":false,"internalType":"address","name":"collector","type":"address"},{"indexed":false,"internalType":"address","name":"dataProvider","type":"address"},{"indexed":false,"internalType":"uint256","name":"score","type":"uint256"}],"name":"ReputationScoreProvided","type":"event"},{"inputs":[{"internalType":"address","name":"","type":"address"}],"name":"collectorList","outputs":[{"internalType":"address","name":"collectorAddress","type":"address"},{"internalType":"address","name":"collectorOwner","type":"address"},{"internalType":"uint256","name":"timestamp","type":"uint256"},{"internalType":"bool","name":"validity","type":"bool"}],"stateMutability":"view","type":"function"},{"inputs":[{"internalType":"uint256","name":"","type":"uint256"}],"name":"collectors","outputs":[{"internalType":"address","name":"","type":"address"}],"stateMutability":"view","type":"function"},{"inputs":[{"internalType":"contract IERC721","name":"nft_","type":"address"},{"internalType":"uint256","name":"feePerDay_","type":"uint256"},{"internalType":"uint256","name":"collectorFee_","type":"uint256"}],"name":"createCollector","outputs":[{"internalType":"address","name":"","type":"address"}],"stateMutability":"nonpayable","type":"function"},{"inputs":[{"internalType":"address","name":"","type":"address"}],"name":"creatorList","outputs":[{"internalType":"bool","name":"","type":"bool"}],"stateMutability":"view","type":"function"},{"inputs":[{"internalType":"address","name":"collector","type":"address"},{"internalType":"address","name":"dataProvider","type":"address"}],"name":"getReputationScore","outputs":[{"internalType":"uint256","name":"","type":"uint256"}],"stateMutability":"view","type":"function"},{"inputs":[{"internalType":"address","name":"collector","type":"address"},{"internalType":"bool","name":"active","type":"bool"}],"name":"handleCollectorCreator","outputs":[],"stateMutability":"nonpayable","type":"function"},{"inputs":[{"internalType":"address","name":"collector","type":"address"},{"internalType":"bool","name":"validity","type":"bool"}],"name":"handleCollectorValidity","outputs":[],"stateMutability":"nonpayable","type":"function"},{"inputs":[{"internalType":"address","name":"reputationProvider","type":"address"},{"internalType":"bool","name":"active","type":"bool"}],"name":"handleReputationProvider","outputs":[],"stateMutability":"nonpayable","type":"function"},{"inputs":[{"internalType":"bool","name":"validation","type":"bool"}],"name":"listCollectorsByValidation","outputs":[{"components":[{"internalType":"address","name":"collectorAddress","type":"address"},{"internalType":"address","name":"collectorOwner","type":"address"},{"internalType":"uint256","name":"timestamp","type":"uint256"},{"internalType":"bool","name":"validity","type":"bool"}],"internalType":"struct CollectorFactory.CollectorInfo[]","name":"","type":"tuple[]"}],"stateMutability":"view","type":"function"},{"inputs":[],"name":"owner","outputs":[{"internalType":"address","name":"","type":"address"}],"stateMutability":"view","type":"function"},{"inputs":[],"name":"renounceOwnership","outputs":[],"stateMutability":"nonpayable","type":"function"},{"inputs":[{"internalType":"address","name":"","type":"address"}],"name":"reputationProviders","outputs":[{"internalType":"bool","name":"","type":"bool"}],"stateMutability":"view","type":"function"},{"inputs":[{"internalType":"address","name":"","type":"address"},{"internalType":"address","name":"","type":"address"}],"name":"reputationRequest","outputs":[{"internalType":"bool","name":"","type":"bool"}],"stateMutability":"view","type":"function"},{"inputs":[{"internalType":"address","name":"","type":"address"},{"internalType":"address","name":"","type":"address"}],"name":"reputationScores","outputs":[{"internalType":"uint256","name":"","type":"uint256"}],"stateMutability":"view","type":"function"},{"inputs":[{"internalType":"address","name":"collector","type":"address"},{"internalType":"address","name":"dataProvider","type":"address"}],"name":"requestReputation","outputs":[],"stateMutability":"nonpayable","type":"function"},{"inputs":[{"internalType":"address","name":"collector","type":"address"},{"internalType":"address","name":"dataProvider","type":"address"},{"internalType":"uint256","name":"score","type":"uint256"}],"name":"storeReputationScore","outputs":[],"stateMutability":"nonpayable","type":"function"},{"inputs":[{"internalType":"address","name":"newOwner","type":"address"}],"name":"transferOwnership","outputs":[],"stateMutability":"nonpayable","type":"function"}],"evm":{"bytecode":{"linkReferences":{},"object":"608060405234801561001057600080fd5b50338061003757604051631e4fbdf760e01b81526000600482015260240160405180910390fd5b61004081610046565b50610096565b600080546001600160a01b038381166001600160a01b0319831681178455604051919092169283917f8be0079c531659141344cd1fd0a4f28419497f9722a3daafe3b4186f6b6457e09190a35050565b6125d0806100a56000396000f3fe60806040523480156200001157600080fd5b5060043610620001215760003560e01c80638da5cb5b11620000af578063e16cd55b116200007a578063e16cd55b1462000325578063e37b09d5146200034b578063e3a82eb81462000379578063f2fde38b1462000390578063fb7cba3d14620003a757600080fd5b80638da5cb5b14620002b45780639c439d0014620002c6578063afa60a0014620002f7578063b3e224b6146200030e57600080fd5b806352bf2cca11620000f057806352bf2cca14620002225780636f2701f11462000248578063715018a6146200025f578063736373af146200026957600080fd5b8063115b1570146200012657806318ca0931146200016157806319b457251462000191578063252e425f14620001aa575b600080fd5b6200014c6200013736600462000c1f565b60066020526000908152604090205460ff1681565b60405190151581526020015b60405180910390f35b620001786200017236600462000c46565b620003be565b6040516001600160a01b03909116815260200162000158565b620001a8620001a236600462000c94565b6200054a565b005b620001f4620001bb36600462000c1f565b600360208190526000918252604090912080546001820154600283015492909301546001600160a01b0391821693909116919060ff1684565b604080516001600160a01b039586168152949093166020850152918301521515606082015260800162000158565b6200014c6200023336600462000c1f565b60016020526000908152604090205460ff1681565b620001a86200025936600462000cce565b620005b8565b620001a8620006dc565b620002a56200027a36600462000d14565b6001600160a01b03918216600090815260056020908152604080832093909416825291909152205490565b60405190815260200162000158565b6000546001600160a01b031662000178565b6200014c620002d736600462000d14565b600460209081526000928352604080842090915290825290205460ff1681565b620001a86200030836600462000d14565b620006f4565b620001786200031f36600462000d52565b62000828565b6200033c6200033636600462000d6c565b62000853565b60405162000158919062000d8a565b620002a56200035c36600462000d14565b600560209081526000928352604080842090915290825290205481565b620001a86200038a36600462000c94565b62000a63565b620001a8620003a136600462000c1f565b62000acd565b620001a8620003b836600462000c94565b62000b15565b3360008181526006602052604081205490919060ff16620003f2576040516332db94d160e21b815260040160405180910390fd5b600033868686604051620004069062000bfb565b6001600160a01b03948516815293909216602084015260408301526060820152608001604051809103906000f08015801562000446573d6000803e3d6000fd5b5060028054600180820183557f405787fa12a823e0f2b7631cc41b3ba8828b3321ca811111fa75cd3aa3bb5ace90910180546001600160a01b03199081166001600160a01b038681169182179093556040805160808101825282815233602080830182815242848601908152606085018a81526000888152600380865290889020965187548b16908c1617875592519a860180549099169a90991699909917909655965197820197909755935193909201805460ff1916931515939093179092558051918252918101929092529192507f9987f1677832d9b3033589824b2e0106bde3a66767ba3bc11d17ff19ad159553910160405180910390a195945050505050565b6200055462000b7c565b6001600160a01b038216600081815260016020908152604091829020805460ff19168515159081179091558251938452908301527fc98246ea88b46eab6b4e2a8e3039fd71ac1650c8eb69ac5409cb91eea558ceba91015b60405180910390a15050565b6001600160a01b0380841660009081526004602090815260408083209386168352929052205460ff16620005ff5760405163c0302bef60e01b815260040160405180910390fd5b3360009081526001602052604090205460ff166200063057604051633b136dc160e11b815260040160405180910390fd5b60648111156200065357604051631556136560e01b815260040160405180910390fd5b6001600160a01b03838116600081815260056020908152604080832094871680845294825280832086905583835260048252808320858452825291829020805460ff1916905581519283528201929092529081018290527f9b474d521a45aa6fe2f64372e6f0f7d670fb1b1ac476f48b895582767e920dab9060600160405180910390a1505050565b620006e662000b7c565b620006f2600062000bab565b565b6001600160a01b0382166000908152600360205260408120600201549003620007305760405163080526f360e31b815260040160405180910390fd5b6001600160a01b038281166000908152600360205260409020600101541633146200076e57604051635e2392f760e11b815260040160405180910390fd5b6001600160a01b0380831660009081526004602090815260408083209385168352929052205460ff1615620007b6576040516324e234e960e01b815260040160405180910390fd5b6001600160a01b03828116600081815260046020908152604080832094861680845294825291829020805460ff19166001179055815192835282019290925242918101919091527f43645670f3b28c1d7dda77a152974bd58fe58b0774b1f596a2300b36efec74f590606001620005ac565b600281815481106200083957600080fd5b6000918252602090912001546001600160a01b0316905081565b60606000805b600254811015620008cd57831515600360006002848154811062000881576200088162000dfe565b60009182526020808320909101546001600160a01b0316835282019290925260400190206003015460ff16151503620008c45781620008c08162000e14565b9250505b60010162000859565b5060008167ffffffffffffffff811115620008ec57620008ec62000e3c565b6040519080825280602002602001820160405280156200094057816020015b6040805160808101825260008082526020808301829052928201819052606082015282526000199092019101816200090b5790505b5090506000805b60025481101562000a595785151560036000600284815481106200096f576200096f62000dfe565b60009182526020808320909101546001600160a01b0316835282019290925260400190206003015460ff1615150362000a50576003600060028381548110620009bc57620009bc62000dfe565b60009182526020808320909101546001600160a01b03908116845283820194909452604092830190912082516080810184528154851681526001820154909416918401919091526002810154918301919091526003015460ff1615156060820152835184908490811062000a345762000a3462000dfe565b6020026020010181905250818062000a4c9062000e14565b9250505b60010162000947565b5090949350505050565b62000a6d62000b7c565b6001600160a01b038216600081815260036020818152604092839020909101805460ff19168515159081179091558251938452908301527fedf1b5195c918214c00fbaf61db78e97ded490def92d3e7911efb420c3186ad29101620005ac565b62000ad762000b7c565b6001600160a01b03811662000b0757604051631e4fbdf760e01b8152600060048201526024015b60405180910390fd5b62000b128162000bab565b50565b62000b1f62000b7c565b6001600160a01b038216600081815260066020908152604091829020805460ff19168515159081179091558251938452908301527f26f4d50b5f8ccb0a0593149470d0ababae355accbe102bf6038a9a2cd32e398b9101620005ac565b6000546001600160a01b03163314620006f25760405163118cdaa760e01b815233600482015260240162000afe565b600080546001600160a01b038381166001600160a01b0319831681178455604051919092169283917f8be0079c531659141344cd1fd0a4f28419497f9722a3daafe3b4186f6b6457e09190a35050565b6117488062000e5383390190565b6001600160a01b038116811462000b1257600080fd5b60006020828403121562000c3257600080fd5b813562000c3f8162000c09565b9392505050565b60008060006060848603121562000c5c57600080fd5b833562000c698162000c09565b95602085013595506040909401359392505050565b8035801515811462000c8f57600080fd5b919050565b6000806040838503121562000ca857600080fd5b823562000cb58162000c09565b915062000cc56020840162000c7e565b90509250929050565b60008060006060848603121562000ce457600080fd5b833562000cf18162000c09565b9250602084013562000d038162000c09565b929592945050506040919091013590565b6000806040838503121562000d2857600080fd5b823562000d358162000c09565b9150602083013562000d478162000c09565b809150509250929050565b60006020828403121562000d6557600080fd5b5035919050565b60006020828403121562000d7f57600080fd5b62000c3f8262000c7e565b602080825282518282018190526000919060409081850190868401855b8281101562000df157815180516001600160a01b03908116865287820151168786015285810151868601526060908101511515908501526080909301929085019060010162000da7565b5091979650505050505050565b634e487b7160e01b600052603260045260246000fd5b60006001820162000e3557634e487b7160e01b600052601160045260246000fd5b5060010190565b634e487b7160e01b600052604160045260246000fdfe60a06040523480156200001157600080fd5b506040516200174838038062001748833981016040819052620000349162000120565b836001600160a01b0381166200006457604051631e4fbdf760e01b81526000600482015260240160405180910390fd5b6200006f81620000b7565b50600180556001600160a01b0383166200009c5760405163d92e233d60e01b815260040160405180910390fd5b6001600160a01b03909216608052600255600355506200016d565b600080546001600160a01b038381166001600160a01b0319831681178455604051919092169283917f8be0079c531659141344cd1fd0a4f28419497f9722a3daafe3b4186f6b6457e09190a35050565b6001600160a01b03811681146200011d57600080fd5b50565b600080600080608085870312156200013757600080fd5b8451620001448162000107565b6020860151909450620001578162000107565b6040860151606090960151949790965092505050565b6080516115a3620001a56000396000818161015601528181610445015281816106f001528181610a100152610d4001526115a36000f3fe6080604052600436106101095760003560e01c806372cb3e8211610095578063a322f94811610064578063a322f948146102d4578063ac5c7c53146102f4578063d9ef52d114610324578063f103eaaf14610339578063f2fde38b1461034f57600080fd5b806372cb3e821461026857806386779b521461028c5780638da5cb5b1461029f578063968ba8ef146102bd57600080fd5b80636207d31b116100dc5780636207d31b146101d2578063692a8a80146102005780636ae5c9b0146102205780636b6c616d14610240578063715018a61461025357600080fd5b806307e7080a1461010e57806347ccca02146101445780635f5bafcc146101905780635fd5bffd146101b0575b600080fd5b34801561011a57600080fd5b5061012e61012936600461105e565b61036f565b60405161013b9190611079565b60405180910390f35b34801561015057600080fd5b506101787f000000000000000000000000000000000000000000000000000000000000000081565b6040516001600160a01b03909116815260200161013b565b34801561019c57600080fd5b506101786101ab3660046110c7565b6103ec565b3480156101bc57600080fd5b506101d06101cb366004611102565b610424565b005b3480156101de57600080fd5b506101f26101ed366004611135565b6105a1565b60405161013b9291906111a5565b34801561020c57600080fd5b506101d061021b3660046111c6565b610651565b34801561022c57600080fd5b506101d061023b3660046111c6565b61068c565b6101d061024e366004611282565b6106c7565b34801561025f57600080fd5b506101d06109d3565b34801561027457600080fd5b5061027e60025481565b60405190815260200161013b565b6101d061029a3660046112d9565b6109e7565b3480156102ab57600080fd5b506000546001600160a01b0316610178565b3480156102c957600080fd5b5061027e6201518081565b3480156102e057600080fd5b506101d06102ef366004611102565b610cce565b34801561030057600080fd5b5061027e61030f36600461105e565b6006602052600090815260409020600a015481565b34801561033057600080fd5b5061027e600a81565b34801561034557600080fd5b5061027e60035481565b34801561035b57600080fd5b506101d061036a36600461105e565b610e35565b6001600160a01b0381166000908152600560209081526040808320805482518185028101850190935280835260609492939192909184015b828210156103e157600084815260209081902060408051808401909152908401546001600160a01b031681528252600190920191016103a7565b505050509050919050565b6005602052816000526040600020818154811061040857600080fd5b6000918252602090912001546001600160a01b03169150829050565b6040516370a0823160e01b81526001600160a01b03808416600483015283917f0000000000000000000000000000000000000000000000000000000000000000909116906370a0823190602401602060405180830381865afa15801561048e573d6000803e3d6000fd5b505050506040513d601f19601f820116820180604052508101906104b29190611341565b6000036104d257604051636af73fb160e11b815260040160405180910390fd5b3360009081526004602090815260408083206001600160a01b03871684529091528120805490910361051757604051631a00354f60e01b815260040160405180910390fd5b8054421061053857604051636406fa1560e01b815260040160405180910390fd5b610543843385610e78565b604080516020810190915260008152600182019061056190826113e4565b50600080825560405133916001600160a01b038716917f4f63ff9c987ba9233a93b549bdb283252838f696fe1349ef76a85e2ae7f822e39190a350505050565b6004602090815260009283526040808420909152908252902080546001820180549192916105ce9061135a565b80601f01602080910402602001604051908101604052809291908181526020018280546105fa9061135a565b80156106475780601f1061061c57610100808354040283529160200191610647565b820191906000526020600020905b81548152906001019060200180831161062a57829003601f168201915b5050505050905082565b610659610f81565b600381905560405181907f526f715cfc9d0f558989a57a9e26f5a05ac1042d2325f75d59bb381fa2a47de290600090a250565b610694610f81565b600281905560405181907feb144f1c5f6ec578479c4044f98979b433ee3348bf4c1eecb39f0e7e3fdb3c8b90600090a250565b6106cf610fae565b6040516370a0823160e01b81526001600160a01b03808516600483015284917f0000000000000000000000000000000000000000000000000000000000000000909116906370a0823190602401602060405180830381865afa158015610739573d6000803e3d6000fd5b505050506040513d601f19601f8201168201806040525081019061075d9190611341565b60000361077d57604051636af73fb160e11b815260040160405180910390fd5b3360009081526004602090815260408083206001600160a01b038816845290915290208054156107c057604051632fec509960e11b815260040160405180910390fd5b426107ce62015180826114ba565b8410156107ee576040516349cb49f560e01b815260040160405180910390fd5b60006107fa82866114cd565b90506000620151806002548361081091906114e0565b61081a919061150d565b90506003548161082a91906114ba565b34101561084a5760405163d90d516f60e01b815260040160405180910390fd5b600080546003546040516001600160a01b039092169281156108fc029290818181858888f19350505050158015610885573d6000803e3d6000fd5b506040516001600160a01b0389169082156108fc029083906000818181858888f193505050501580156108bc573d6000803e3d6000fd5b506003546108ca90826114ba565b3411156109185760035433906108fc906108e490846114ba565b6108ee90346114cd565b6040518115909202916000818181858888f19350505050158015610916573d6000803e3d6000fd5b505b6001600160a01b0388811660009081526005602090815260408083208151808401909252338252805460018082018355918552929093209051910180546001600160a01b0319169190931617909155840161097388826113e4565b50858455604051869033906001600160a01b038b16907fa096d55fe0953227eb38bd4cae5ab7f659a80d663b3b9e889999e9c90891423d906109b8908c908990611521565b60405180910390a450505050506109ce60018055565b505050565b6109db610f81565b6109e56000610fd8565b565b6109ef610fae565b6040516370a0823160e01b81526001600160a01b03808616600483015285917f0000000000000000000000000000000000000000000000000000000000000000909116906370a0823190602401602060405180830381865afa158015610a59573d6000803e3d6000fd5b505050506040513d601f19601f82011682018060405250810190610a7d9190611341565b600003610a9d57604051636af73fb160e11b815260040160405180910390fd5b3360009081526004602090815260408083206001600160a01b038916845290915281208054909142919003610ae557604051631a00354f60e01b815260040160405180910390fd5b6000610af5836000015483611028565b9050610b0462015180826114ba565b861015610b24576040516349cb49f560e01b815260040160405180910390fd5b6000610b3082886114cd565b905060006201518060025483610b4691906114e0565b610b50919061150d565b905060035481610b6091906114ba565b341015610b805760405163d90d516f60e01b815260040160405180910390fd5b600080546003546040516001600160a01b039092169281156108fc029290818181858888f19350505050158015610bbb573d6000803e3d6000fd5b506040516001600160a01b038b169082156108fc029083906000818181858888f19350505050158015610bf2573d6000803e3d6000fd5b50600354610c0090826114ba565b341115610c4e5760035433906108fc90610c1a90846114ba565b610c2490346114cd565b6040518115909202916000818181858888f19350505050158015610c4c573d6000803e3d6000fd5b505b610c598a3389610e78565b87855560018501610c6a8a826113e4565b5087336001600160a01b03168b6001600160a01b03167f7e8eb2c1af97a3780b1a02bef48aa99bd50f08bae7654aabcbab9f3bc4ee0f7b8c42604051610cb1929190611521565b60405180910390a4505050505050610cc860018055565b50505050565b3360009081526004602090815260408083206001600160a01b038616845290915281208054909103610d1357604051631a00354f60e01b815260040160405180910390fd5b805442108015610daf57506040516370a0823160e01b81526001600160a01b0384811660048301526000917f0000000000000000000000000000000000000000000000000000000000000000909116906370a0823190602401602060405180830381865afa158015610d89573d6000803e3d6000fd5b505050506040513d601f19601f82011682018060405250810190610dad9190611341565b115b15610dcd5760405163dff2758760e01b815260040160405180910390fd5b610dd8833384610e78565b6040805160208101909152600081526001820190610df690826113e4565b50600080825560405133916001600160a01b038616917fa36e542773a934d56325c3a8d3df287cc118d14dc700c17f406523f1f6447ca59190a3505050565b610e3d610f81565b6001600160a01b038116610e6c57604051631e4fbdf760e01b8152600060048201526024015b60405180910390fd5b610e7581610fd8565b50565b8060648160ff161115610e9e576040516303ea000960e61b815260040160405180910390fd5b6001600160a01b038085166000908152600660209081526040918290208251808401909352928616825260ff851690820152600a8083015483918110610ee657610ee6611543565b82519101805460209093015160ff16600160a01b026001600160a81b03199093166001600160a01b0390921691909117919091179055600a81810154610f2d9060016114ba565b610f379190611559565b600a82015560405160ff8416906001600160a01b0380871691908816907f44aedcfa4237cfb29d0f6850597741cb4f40c25e45b4265264100c7c1156675790600090a45050505050565b6000546001600160a01b031633146109e55760405163118cdaa760e01b8152336004820152602401610e63565b600260015403610fd157604051633ee5aeb560e01b815260040160405180910390fd5b6002600155565b600080546001600160a01b038381166001600160a01b0319831681178455604051919092169283917f8be0079c531659141344cd1fd0a4f28419497f9722a3daafe3b4186f6b6457e09190a35050565b60008183116110375781611039565b825b90505b92915050565b80356001600160a01b038116811461105957600080fd5b919050565b60006020828403121561107057600080fd5b61103982611042565b6020808252825182820181905260009190848201906040850190845b818110156110bb578351516001600160a01b031683529284019291840191600101611095565b50909695505050505050565b600080604083850312156110da57600080fd5b6110e383611042565b946020939093013593505050565b803560ff8116811461105957600080fd5b6000806040838503121561111557600080fd5b61111e83611042565b915061112c602084016110f1565b90509250929050565b6000806040838503121561114857600080fd5b61115183611042565b915061112c60208401611042565b6000815180845260005b8181101561118557602081850181015186830182015201611169565b506000602082860101526020601f19601f83011685010191505092915050565b8281526040602082015260006111be604083018461115f565b949350505050565b6000602082840312156111d857600080fd5b5035919050565b634e487b7160e01b600052604160045260246000fd5b600082601f83011261120657600080fd5b813567ffffffffffffffff80821115611221576112216111df565b604051601f8301601f19908116603f01168101908282118183101715611249576112496111df565b8160405283815286602085880101111561126257600080fd5b836020870160208301376000602085830101528094505050505092915050565b60008060006060848603121561129757600080fd5b6112a084611042565b9250602084013567ffffffffffffffff8111156112bc57600080fd5b6112c8868287016111f5565b925050604084013590509250925092565b600080600080608085870312156112ef57600080fd5b6112f885611042565b9350602085013567ffffffffffffffff81111561131457600080fd5b611320878288016111f5565b93505060408501359150611336606086016110f1565b905092959194509250565b60006020828403121561135357600080fd5b5051919050565b600181811c9082168061136e57607f821691505b60208210810361138e57634e487b7160e01b600052602260045260246000fd5b50919050565b601f8211156109ce576000816000526020600020601f850160051c810160208610156113bd5750805b601f850160051c820191505b818110156113dc578281556001016113c9565b505050505050565b815167ffffffffffffffff8111156113fe576113fe6111df565b6114128161140c845461135a565b84611394565b602080601f831160018114611447576000841561142f5750858301515b600019600386901b1c1916600185901b1785556113dc565b600085815260208120601f198616915b8281101561147657888601518255948401946001909101908401611457565b50858210156114945787850151600019600388901b60f8161c191681555b5050505050600190811b01905550565b634e487b7160e01b600052601160045260246000fd5b8082018082111561103c5761103c6114a4565b8181038181111561103c5761103c6114a4565b808202811582820484141761103c5761103c6114a4565b634e487b7160e01b600052601260045260246000fd5b60008261151c5761151c6114f7565b500490565b604081526000611534604083018561115f565b90508260208301529392505050565b634e487b7160e01b600052603260045260246000fd5b600082611568576115686114f7565b50069056fea26469706673582212201d49266f759dd1ab96a49e295512ca99b0276138b586e5973fec2bbf3fa89f2464736f6c63430008180033a2646970667358221220a7704a6eb85e251e9451a18738e65c1948a0a07ddb5be15aef7bd217ae59d25464736f6c63430008180033","opcodes":"PUSH1 0x80 PUSH1 0x40 MSTORE CALLVALUE DUP1 ISZERO PUSH2 0x10 JUMPI PUSH1 0x0 DUP1 REVERT JUMPDEST POP CALLER DUP1 PUSH2 0x37 JUMPI PUSH1 0x40 MLOAD PUSH4 0x1E4FBDF7 PUSH1 0xE0 SHL DUP2 MSTORE PUSH1 0x0 PUSH1 0x4 DUP3 ADD MSTORE PUSH1 0x24 ADD PUSH1 0x40 MLOAD DUP1 SWAP2 SUB SWAP1 REVERT JUMPDEST PUSH2 0x40 DUP2 PUSH2 0x46 JUMP JUMPDEST POP PUSH2 0x96 JUMP JUMPDEST PUSH1 0x0 DUP1 SLOAD PUSH1 0x1 PUSH1 0x1 PUSH1 0xA0 SHL SUB DUP4 DUP2 AND PUSH1 0x1 PUSH1 0x1 PUSH1 0xA0 SHL SUB NOT DUP4 AND DUP2 OR DUP5 SSTORE PUSH1 0x40 MLOAD SWAP2 SWAP1 SWAP3 AND SWAP3 DUP4 SWAP2 PUSH32 0x8BE0079C531659141344CD1FD0A4F28419497F9722A3DAAFE3B4186F6B6457E0 SWAP2 SWAP1 LOG3 POP POP JUMP JUMPDEST PUSH2 0x25D0 DUP1 PUSH2 0xA5 PUSH1 0x0 CODECOPY PUSH1 0x0 RETURN INVALID PUSH1 0x80 PUSH1 0x40 MSTORE CALLVALUE DUP1 ISZERO PUSH3 0x11 JUMPI PUSH1 0x0 DUP1 REVERT JUMPDEST POP PUSH1 0x4 CALLDATASIZE LT PUSH3 0x121 JUMPI PUSH1 0x0 CALLDATALOAD PUSH1 0xE0 SHR DUP1 PUSH4 0x8DA5CB5B GT PUSH3 0xAF JUMPI DUP1 PUSH4 0xE16CD55B GT PUSH3 0x7A JUMPI DUP1 PUSH4 0xE16CD55B EQ PUSH3 0x325 JUMPI DUP1 PUSH4 0xE37B09D5 EQ PUSH3 0x34B JUMPI DUP1 PUSH4 0xE3A82EB8 EQ PUSH3 0x379 JUMPI DUP1 PUSH4 0xF2FDE38B EQ PUSH3 0x390 JUMPI DUP1 PUSH4 0xFB7CBA3D EQ PUSH3 0x3A7 JUMPI PUSH1 0x0 DUP1 REVERT JUMPDEST DUP1 PUSH4 0x8DA5CB5B EQ PUSH3 0x2B4 JUMPI DUP1 PUSH4 0x9C439D00 EQ PUSH3 0x2C6 JUMPI DUP1 PUSH4 0xAFA60A00 EQ PUSH3 0x2F7 JUMPI DUP1 PUSH4 0xB3E224B6 EQ PUSH3 0x30E JUMPI PUSH1 0x0 DUP1 REVERT JUMPDEST DUP1 PUSH4 0x52BF2CCA GT PUSH3 0xF0 JUMPI DUP1 PUSH4 0x52BF2CCA EQ PUSH3 0x222 JUMPI DUP1 PUSH4 0x6F2701F1 EQ PUSH3 0x248 JUMPI DUP1 PUSH4 0x715018A6 EQ PUSH3 0x25F JUMPI DUP1 PUSH4 0x736373AF EQ PUSH3 0x269 JUMPI PUSH1 0x0 DUP1 REVERT JUMPDEST DUP1 PUSH4 0x115B1570 EQ PUSH3 0x126 JUMPI DUP1 PUSH4 0x18CA0931 EQ PUSH3 0x161 JUMPI DUP1 PUSH4 0x19B45725 EQ PUSH3 0x191 JUMPI DUP1 PUSH4 0x252E425F EQ PUSH3 0x1AA JUMPI JUMPDEST PUSH1 0x0 DUP1 REVERT JUMPDEST PUSH3 0x14C PUSH3 0x137 CALLDATASIZE PUSH1 0x4 PUSH3 0xC1F JUMP JUMPDEST PUSH1 0x6 PUSH1 0x20 MSTORE PUSH1 0x0 SWAP1 DUP2 MSTORE PUSH1 0x40 SWAP1 KECCAK256 SLOAD PUSH1 0xFF AND DUP2 JUMP JUMPDEST PUSH1 0x40 MLOAD SWAP1 ISZERO ISZERO DUP2 MSTORE PUSH1 0x20 ADD JUMPDEST PUSH1 0x40 MLOAD DUP1 SWAP2 SUB SWAP1 RETURN JUMPDEST PUSH3 0x178 PUSH3 0x172 CALLDATASIZE PUSH1 0x4 PUSH3 0xC46 JUMP JUMPDEST PUSH3 0x3BE JUMP JUMPDEST PUSH1 0x40 MLOAD PUSH1 0x1 PUSH1 0x1 PUSH1 0xA0 SHL SUB SWAP1 SWAP2 AND DUP2 MSTORE PUSH1 0x20 ADD PUSH3 0x158 JUMP JUMPDEST PUSH3 0x1A8 PUSH3 0x1A2 CALLDATASIZE PUSH1 0x4 PUSH3 0xC94 JUMP JUMPDEST PUSH3 0x54A JUMP JUMPDEST STOP JUMPDEST PUSH3 0x1F4 PUSH3 0x1BB CALLDATASIZE PUSH1 0x4 PUSH3 0xC1F JUMP JUMPDEST PUSH1 0x3 PUSH1 0x20 DUP2 SWAP1 MSTORE PUSH1 0x0 SWAP2 DUP3 MSTORE PUSH1 0x40 SWAP1 SWAP2 KECCAK256 DUP1 SLOAD PUSH1 0x1 DUP3 ADD SLOAD PUSH1 0x2 DUP4 ADD SLOAD SWAP3 SWAP1 SWAP4 ADD SLOAD PUSH1 0x1 PUSH1 0x1 PUSH1 0xA0 SHL SUB SWAP2 DUP3 AND SWAP4 SWAP1 SWAP2 AND SWAP2 SWAP1 PUSH1 0xFF AND DUP5 JUMP JUMPDEST PUSH1 0x40 DUP1 MLOAD PUSH1 0x1 PUSH1 0x1 PUSH1 0xA0 SHL SUB SWAP6 DUP7 AND DUP2 MSTORE SWAP5 SWAP1 SWAP4 AND PUSH1 0x20 DUP6 ADD MSTORE SWAP2 DUP4 ADD MSTORE ISZERO ISZERO PUSH1 0x60 DUP3 ADD MSTORE PUSH1 0x80 ADD PUSH3 0x158 JUMP JUMPDEST PUSH3 0x14C PUSH3 0x233 CALLDATASIZE PUSH1 0x4 PUSH3 0xC1F JUMP JUMPDEST PUSH1 0x1 PUSH1 0x20 MSTORE PUSH1 0x0 SWAP1 DUP2 MSTORE PUSH1 0x40 SWAP1 KECCAK256 SLOAD PUSH1 0xFF AND DUP2 JUMP JUMPDEST PUSH3 0x1A8 PUSH3 0x259 CALLDATASIZE PUSH1 0x4 PUSH3 0xCCE JUMP JUMPDEST PUSH3 0x5B8 JUMP JUMPDEST PUSH3 0x1A8 PUSH3 0x6DC JUMP JUMPDEST PUSH3 0x2A5 PUSH3 0x27A CALLDATASIZE PUSH1 0x4 PUSH3 0xD14 JUMP JUMPDEST PUSH1 0x1 PUSH1 0x1 PUSH1 0xA0 SHL SUB SWAP2 DUP3 AND PUSH1 0x0 SWAP1 DUP2 MSTORE PUSH1 0x5 PUSH1 0x20 SWAP1 DUP2 MSTORE PUSH1 0x40 DUP1 DUP4 KECCAK256 SWAP4 SWAP1 SWAP5 AND DUP3 MSTORE SWAP2 SWAP1 SWAP2 MSTORE KECCAK256 SLOAD SWAP1 JUMP JUMPDEST PUSH1 0x40 MLOAD SWAP1 DUP2 MSTORE PUSH1 0x20 ADD PUSH3 0x158 JUMP JUMPDEST PUSH1 0x0 SLOAD PUSH1 0x1 PUSH1 0x1 PUSH1 0xA0 SHL SUB AND PUSH3 0x178 JUMP JUMPDEST PUSH3 0x14C PUSH3 0x2D7 CALLDATASIZE PUSH1 0x4 PUSH3 0xD14 JUMP JUMPDEST PUSH1 0x4 PUSH1 0x20 SWAP1 DUP2 MSTORE PUSH1 0x0 SWAP3 DUP4 MSTORE PUSH1 0x40 DUP1 DUP5 KECCAK256 SWAP1 SWAP2 MSTORE SWAP1 DUP3 MSTORE SWAP1 KECCAK256 SLOAD PUSH1 0xFF AND DUP2 JUMP JUMPDEST PUSH3 0x1A8 PUSH3 0x308 CALLDATASIZE PUSH1 0x4 PUSH3 0xD14 JUMP JUMPDEST PUSH3 0x6F4 JUMP JUMPDEST PUSH3 0x178 PUSH3 0x31F CALLDATASIZE PUSH1 0x4 PUSH3 0xD52 JUMP JUMPDEST PUSH3 0x828 JUMP JUMPDEST PUSH3 0x33C PUSH3 0x336 CALLDATASIZE PUSH1 0x4 PUSH3 0xD6C JUMP JUMPDEST PUSH3 0x853 JUMP JUMPDEST PUSH1 0x40 MLOAD PUSH3 0x158 SWAP2 SWAP1 PUSH3 0xD8A JUMP JUMPDEST PUSH3 0x2A5 PUSH3 0x35C CALLDATASIZE PUSH1 0x4 PUSH3 0xD14 JUMP JUMPDEST PUSH1 0x5 PUSH1 0x20 SWAP1 DUP2 MSTORE PUSH1 0x0 SWAP3 DUP4 MSTORE PUSH1 0x40 DUP1 DUP5 KECCAK256 SWAP1 SWAP2 MSTORE SWAP1 DUP3 MSTORE SWAP1 KECCAK256 SLOAD DUP2 JUMP JUMPDEST PUSH3 0x1A8 PUSH3 0x38A CALLDATASIZE PUSH1 0x4 PUSH3 0xC94 JUMP JUMPDEST PUSH3 0xA63 JUMP JUMPDEST PUSH3 0x1A8 PUSH3 0x3A1 CALLDATASIZE PUSH1 0x4 PUSH3 0xC1F JUMP JUMPDEST PUSH3 0xACD JUMP JUMPDEST PUSH3 0x1A8 PUSH3 0x3B8 CALLDATASIZE PUSH1 0x4 PUSH3 0xC94 JUMP JUMPDEST PUSH3 0xB15 JUMP JUMPDEST CALLER PUSH1 0x0 DUP2 DUP2 MSTORE PUSH1 0x6 PUSH1 0x20 MSTORE PUSH1 0x40 DUP2 KECCAK256 SLOAD SWAP1 SWAP2 SWAP1 PUSH1 0xFF AND PUSH3 0x3F2 JUMPI PUSH1 0x40 MLOAD PUSH4 0x32DB94D1 PUSH1 0xE2 SHL DUP2 MSTORE PUSH1 0x4 ADD PUSH1 0x40 MLOAD DUP1 SWAP2 SUB SWAP1 REVERT JUMPDEST PUSH1 0x0 CALLER DUP7 DUP7 DUP7 PUSH1 0x40 MLOAD PUSH3 0x406 SWAP1 PUSH3 0xBFB JUMP JUMPDEST PUSH1 0x1 PUSH1 0x1 PUSH1 0xA0 SHL SUB SWAP5 DUP6 AND DUP2 MSTORE SWAP4 SWAP1 SWAP3 AND PUSH1 0x20 DUP5 ADD MSTORE PUSH1 0x40 DUP4 ADD MSTORE PUSH1 0x60 DUP3 ADD MSTORE PUSH1 0x80 ADD PUSH1 0x40 MLOAD DUP1 SWAP2 SUB SWAP1 PUSH1 0x0 CREATE DUP1 ISZERO DUP1 ISZERO PUSH3 0x446 JUMPI RETURNDATASIZE PUSH1 0x0 DUP1 RETURNDATACOPY RETURNDATASIZE PUSH1 0x0 REVERT JUMPDEST POP PUSH1 0x2 DUP1 SLOAD PUSH1 0x1 DUP1 DUP3 ADD DUP4 SSTORE PUSH32 0x405787FA12A823E0F2B7631CC41B3BA8828B3321CA811111FA75CD3AA3BB5ACE SWAP1 SWAP2 ADD DUP1 SLOAD PUSH1 0x1 PUSH1 0x1 PUSH1 0xA0 SHL SUB NOT SWAP1 DUP2 AND PUSH1 0x1 PUSH1 0x1 PUSH1 0xA0 SHL SUB DUP7 DUP2 AND SWAP2 DUP3 OR SWAP1 SWAP4 SSTORE PUSH1 0x40 DUP1 MLOAD PUSH1 0x80 DUP2 ADD DUP3 MSTORE DUP3 DUP2 MSTORE CALLER PUSH1 0x20 DUP1 DUP4 ADD DUP3 DUP2 MSTORE TIMESTAMP DUP5 DUP7 ADD SWAP1 DUP2 MSTORE PUSH1 0x60 DUP6 ADD DUP11 DUP2 MSTORE PUSH1 0x0 DUP9 DUP2 MSTORE PUSH1 0x3 DUP1 DUP7 MSTORE SWAP1 DUP9 SWAP1 KECCAK256 SWAP7 MLOAD DUP8 SLOAD DUP12 AND SWAP1 DUP13 AND OR DUP8 SSTORE SWAP3 MLOAD SWAP11 DUP7 ADD DUP1 SLOAD SWAP1 SWAP10 AND SWAP11 SWAP1 SWAP10 AND SWAP10 SWAP1 SWAP10 OR SWAP1 SWAP7 SSTORE SWAP7 MLOAD SWAP8 DUP3 ADD SWAP8 SWAP1 SWAP8 SSTORE SWAP4 MLOAD SWAP4 SWAP1 SWAP3 ADD DUP1 SLOAD PUSH1 0xFF NOT AND SWAP4 ISZERO ISZERO SWAP4 SWAP1 SWAP4 OR SWAP1 SWAP3 SSTORE DUP1 MLOAD SWAP2 DUP3 MSTORE SWAP2 DUP2 ADD SWAP3 SWAP1 SWAP3 MSTORE SWAP2 SWAP3 POP PUSH32 0x9987F1677832D9B3033589824B2E0106BDE3A66767BA3BC11D17FF19AD159553 SWAP2 ADD PUSH1 0x40 MLOAD DUP1 SWAP2 SUB SWAP1 LOG1 SWAP6 SWAP5 POP POP POP POP POP JUMP JUMPDEST PUSH3 0x554 PUSH3 0xB7C JUMP JUMPDEST PUSH1 0x1 PUSH1 0x1 PUSH1 0xA0 SHL SUB DUP3 AND PUSH1 0x0 DUP2 DUP2 MSTORE PUSH1 0x1 PUSH1 0x20 SWAP1 DUP2 MSTORE PUSH1 0x40 SWAP2 DUP3 SWAP1 KECCAK256 DUP1 SLOAD PUSH1 0xFF NOT AND DUP6 ISZERO ISZERO SWAP1 DUP2 OR SWAP1 SWAP2 SSTORE DUP3 MLOAD SWAP4 DUP5 MSTORE SWAP1 DUP4 ADD MSTORE PUSH32 0xC98246EA88B46EAB6B4E2A8E3039FD71AC1650C8EB69AC5409CB91EEA558CEBA SWAP2 ADD JUMPDEST PUSH1 0x40 MLOAD DUP1 SWAP2 SUB SWAP1 LOG1 POP POP JUMP JUMPDEST PUSH1 0x1 PUSH1 0x1 PUSH1 0xA0 SHL SUB DUP1 DUP5 AND PUSH1 0x0 SWAP1 DUP2 MSTORE PUSH1 0x4 PUSH1 0x20 SWAP1 DUP2 MSTORE PUSH1 0x40 DUP1 DUP4 KECCAK256 SWAP4 DUP7 AND DUP4 MSTORE SWAP3 SWAP1 MSTORE KECCAK256 SLOAD PUSH1 0xFF AND PUSH3 0x5FF JUMPI PUSH1 0x40 MLOAD PUSH4 0xC0302BEF PUSH1 0xE0 SHL DUP2 MSTORE PUSH1 0x4 ADD PUSH1 0x40 MLOAD DUP1 SWAP2 SUB SWAP1 REVERT JUMPDEST CALLER PUSH1 0x0 SWAP1 DUP2 MSTORE PUSH1 0x1 PUSH1 0x20 MSTORE PUSH1 0x40 SWAP1 KECCAK256 SLOAD PUSH1 0xFF AND PUSH3 0x630 JUMPI PUSH1 0x40 MLOAD PUSH4 0x3B136DC1 PUSH1 0xE1 SHL DUP2 MSTORE PUSH1 0x4 ADD PUSH1 0x40 MLOAD DUP1 SWAP2 SUB SWAP1 REVERT JUMPDEST PUSH1 0x64 DUP2 GT ISZERO PUSH3 0x653 JUMPI PUSH1 0x40 MLOAD PUSH4 0x15561365 PUSH1 0xE0 SHL DUP2 MSTORE PUSH1 0x4 ADD PUSH1 0x40 MLOAD DUP1 SWAP2 SUB SWAP1 REVERT JUMPDEST PUSH1 0x1 PUSH1 0x1 PUSH1 0xA0 SHL SUB DUP4 DUP2 AND PUSH1 0x0 DUP2 DUP2 MSTORE PUSH1 0x5 PUSH1 0x20 SWAP1 DUP2 MSTORE PUSH1 0x40 DUP1 DUP4 KECCAK256 SWAP5 DUP8 AND DUP1 DUP5 MSTORE SWAP5 DUP3 MSTORE DUP1 DUP4 KECCAK256 DUP7 SWAP1 SSTORE DUP4 DUP4 MSTORE PUSH1 0x4 DUP3 MSTORE DUP1 DUP4 KECCAK256 DUP6 DUP5 MSTORE DUP3 MSTORE SWAP2 DUP3 SWAP1 KECCAK256 DUP1 SLOAD PUSH1 0xFF NOT AND SWAP1 SSTORE DUP2 MLOAD SWAP3 DUP4 MSTORE DUP3 ADD SWAP3 SWAP1 SWAP3 MSTORE SWAP1 DUP2 ADD DUP3 SWAP1 MSTORE PUSH32 0x9B474D521A45AA6FE2F64372E6F0F7D670FB1B1AC476F48B895582767E920DAB SWAP1 PUSH1 0x60 ADD PUSH1 0x40 MLOAD DUP1 SWAP2 SUB SWAP1 LOG1 POP POP POP JUMP JUMPDEST PUSH3 0x6E6 PUSH3 0xB7C JUMP JUMPDEST PUSH3 0x6F2 PUSH1 0x0 PUSH3 0xBAB JUMP JUMPDEST JUMP JUMPDEST PUSH1 0x1 PUSH1 0x1 PUSH1 0xA0 SHL SUB DUP3 AND PUSH1 0x0 SWAP1 DUP2 MSTORE PUSH1 0x3 PUSH1 0x20 MSTORE PUSH1 0x40 DUP2 KECCAK256 PUSH1 0x2 ADD SLOAD SWAP1 SUB PUSH3 0x730 JUMPI PUSH1 0x40 MLOAD PUSH4 0x80526F3 PUSH1 0xE3 SHL DUP2 MSTORE PUSH1 0x4 ADD PUSH1 0x40 MLOAD DUP1 SWAP2 SUB SWAP1 REVERT JUMPDEST PUSH1 0x1 PUSH1 0x1 PUSH1 0xA0 SHL SUB DUP3 DUP2 AND PUSH1 0x0 SWAP1 DUP2 MSTORE PUSH1 0x3 PUSH1 0x20 MSTORE PUSH1 0x40 SWAP1 KECCAK256 PUSH1 0x1 ADD SLOAD AND CALLER EQ PUSH3 0x76E JUMPI PUSH1 0x40 MLOAD PUSH4 0x5E2392F7 PUSH1 0xE1 SHL DUP2 MSTORE PUSH1 0x4 ADD PUSH1 0x40 MLOAD DUP1 SWAP2 SUB SWAP1 REVERT JUMPDEST PUSH1 0x1 PUSH1 0x1 PUSH1 0xA0 SHL SUB DUP1 DUP4 AND PUSH1 0x0 SWAP1 DUP2 MSTORE PUSH1 0x4 PUSH1 0x20 SWAP1 DUP2 MSTORE PUSH1 0x40 DUP1 DUP4 KECCAK256 SWAP4 DUP6 AND DUP4 MSTORE SWAP3 SWAP1 MSTORE KECCAK256 SLOAD PUSH1 0xFF AND ISZERO PUSH3 0x7B6 JUMPI PUSH1 0x40 MLOAD PUSH4 0x24E234E9 PUSH1 0xE0 SHL DUP2 MSTORE PUSH1 0x4 ADD PUSH1 0x40 MLOAD DUP1 SWAP2 SUB SWAP1 REVERT JUMPDEST PUSH1 0x1 PUSH1 0x1 PUSH1 0xA0 SHL SUB DUP3 DUP2 AND PUSH1 0x0 DUP2 DUP2 MSTORE PUSH1 0x4 PUSH1 0x20 SWAP1 DUP2 MSTORE PUSH1 0x40 DUP1 DUP4 KECCAK256 SWAP5 DUP7 AND DUP1 DUP5 MSTORE SWAP5 DUP3 MSTORE SWAP2 DUP3 SWAP1 KECCAK256 DUP1 SLOAD PUSH1 0xFF NOT AND PUSH1 0x1 OR SWAP1 SSTORE DUP2 MLOAD SWAP3 DUP4 MSTORE DUP3 ADD SWAP3 SWAP1 SWAP3 MSTORE TIMESTAMP SWAP2 DUP2 ADD SWAP2 SWAP1 SWAP2 MSTORE PUSH32 0x43645670F3B28C1D7DDA77A152974BD58FE58B0774B1F596A2300B36EFEC74F5 SWAP1 PUSH1 0x60 ADD PUSH3 0x5AC JUMP JUMPDEST PUSH1 0x2 DUP2 DUP2 SLOAD DUP2 LT PUSH3 0x839 JUMPI PUSH1 0x0 DUP1 REVERT JUMPDEST PUSH1 0x0 SWAP2 DUP3 MSTORE PUSH1 0x20 SWAP1 SWAP2 KECCAK256 ADD SLOAD PUSH1 0x1 PUSH1 0x1 PUSH1 0xA0 SHL SUB AND SWAP1 POP DUP2 JUMP JUMPDEST PUSH1 0x60 PUSH1 0x0 DUP1 JUMPDEST PUSH1 0x2 SLOAD DUP2 LT ISZERO PUSH3 0x8CD JUMPI DUP4 ISZERO ISZERO PUSH1 0x3 PUSH1 0x0 PUSH1 0x2 DUP5 DUP2 SLOAD DUP2 LT PUSH3 0x881 JUMPI PUSH3 0x881 PUSH3 0xDFE JUMP JUMPDEST PUSH1 0x0 SWAP2 DUP3 MSTORE PUSH1 0x20 DUP1 DUP4 KECCAK256 SWAP1 SWAP2 ADD SLOAD PUSH1 0x1 PUSH1 0x1 PUSH1 0xA0 SHL SUB AND DUP4 MSTORE DUP3 ADD SWAP3 SWAP1 SWAP3 MSTORE PUSH1 0x40 ADD SWAP1 KECCAK256 PUSH1 0x3 ADD SLOAD PUSH1 0xFF AND ISZERO ISZERO SUB PUSH3 0x8C4 JUMPI DUP2 PUSH3 0x8C0 DUP2 PUSH3 0xE14 JUMP JUMPDEST SWAP3 POP POP JUMPDEST PUSH1 0x1 ADD PUSH3 0x859 JUMP JUMPDEST POP PUSH1 0x0 DUP2 PUSH8 0xFFFFFFFFFFFFFFFF DUP2 GT ISZERO PUSH3 0x8EC JUMPI PUSH3 0x8EC PUSH3 0xE3C JUMP JUMPDEST PUSH1 0x40 MLOAD SWAP1 DUP1 DUP3 MSTORE DUP1 PUSH1 0x20 MUL PUSH1 0x20 ADD DUP3 ADD PUSH1 0x40 MSTORE DUP1 ISZERO PUSH3 0x940 JUMPI DUP2 PUSH1 0x20 ADD JUMPDEST PUSH1 0x40 DUP1 MLOAD PUSH1 0x80 DUP2 ADD DUP3 MSTORE PUSH1 0x0 DUP1 DUP3 MSTORE PUSH1 0x20 DUP1 DUP4 ADD DUP3 SWAP1 MSTORE SWAP3 DUP3 ADD DUP2 SWAP1 MSTORE PUSH1 0x60 DUP3 ADD MSTORE DUP3 MSTORE PUSH1 0x0 NOT SWAP1 SWAP3 ADD SWAP2 ADD DUP2 PUSH3 0x90B JUMPI SWAP1 POP JUMPDEST POP SWAP1 POP PUSH1 0x0 DUP1 JUMPDEST PUSH1 0x2 SLOAD DUP2 LT ISZERO PUSH3 0xA59 JUMPI DUP6 ISZERO ISZERO PUSH1 0x3 PUSH1 0x0 PUSH1 0x2 DUP5 DUP2 SLOAD DUP2 LT PUSH3 0x96F JUMPI PUSH3 0x96F PUSH3 0xDFE JUMP JUMPDEST PUSH1 0x0 SWAP2 DUP3 MSTORE PUSH1 0x20 DUP1 DUP4 KECCAK256 SWAP1 SWAP2 ADD SLOAD PUSH1 0x1 PUSH1 0x1 PUSH1 0xA0 SHL SUB AND DUP4 MSTORE DUP3 ADD SWAP3 SWAP1 SWAP3 MSTORE PUSH1 0x40 ADD SWAP1 KECCAK256 PUSH1 0x3 ADD SLOAD PUSH1 0xFF AND ISZERO ISZERO SUB PUSH3 0xA50 JUMPI PUSH1 0x3 PUSH1 0x0 PUSH1 0x2 DUP4 DUP2 SLOAD DUP2 LT PUSH3 0x9BC JUMPI PUSH3 0x9BC PUSH3 0xDFE JUMP JUMPDEST PUSH1 0x0 SWAP2 DUP3 MSTORE PUSH1 0x20 DUP1 DUP4 KECCAK256 SWAP1 SWAP2 ADD SLOAD PUSH1 0x1 PUSH1 0x1 PUSH1 0xA0 SHL SUB SWAP1 DUP2 AND DUP5 MSTORE DUP4 DUP3 ADD SWAP5 SWAP1 SWAP5 MSTORE PUSH1 0x40 SWAP3 DUP4 ADD SWAP1 SWAP2 KECCAK256 DUP3 MLOAD PUSH1 0x80 DUP2 ADD DUP5 MSTORE DUP2 SLOAD DUP6 AND DUP2 MSTORE PUSH1 0x1 DUP3 ADD SLOAD SWAP1 SWAP5 AND SWAP2 DUP5 ADD SWAP2 SWAP1 SWAP2 MSTORE PUSH1 0x2 DUP2 ADD SLOAD SWAP2 DUP4 ADD SWAP2 SWAP1 SWAP2 MSTORE PUSH1 0x3 ADD SLOAD PUSH1 0xFF AND ISZERO ISZERO PUSH1 0x60 DUP3 ADD MSTORE DUP4 MLOAD DUP5 SWAP1 DUP5 SWAP1 DUP2 LT PUSH3 0xA34 JUMPI PUSH3 0xA34 PUSH3 0xDFE JUMP JUMPDEST PUSH1 0x20 MUL PUSH1 0x20 ADD ADD DUP2 SWAP1 MSTORE POP DUP2 DUP1 PUSH3 0xA4C SWAP1 PUSH3 0xE14 JUMP JUMPDEST SWAP3 POP POP JUMPDEST PUSH1 0x1 ADD PUSH3 0x947 JUMP JUMPDEST POP SWAP1 SWAP5 SWAP4 POP POP POP POP JUMP JUMPDEST PUSH3 0xA6D PUSH3 0xB7C JUMP JUMPDEST PUSH1 0x1 PUSH1 0x1 PUSH1 0xA0 SHL SUB DUP3 AND PUSH1 0x0 DUP2 DUP2 MSTORE PUSH1 0x3 PUSH1 0x20 DUP2 DUP2 MSTORE PUSH1 0x40 SWAP3 DUP4 SWAP1 KECCAK256 SWAP1 SWAP2 ADD DUP1 SLOAD PUSH1 0xFF NOT AND DUP6 ISZERO ISZERO SWAP1 DUP2 OR SWAP1 SWAP2 SSTORE DUP3 MLOAD SWAP4 DUP5 MSTORE SWAP1 DUP4 ADD MSTORE PUSH32 0xEDF1B5195C918214C00FBAF61DB78E97DED490DEF92D3E7911EFB420C3186AD2 SWAP2 ADD PUSH3 0x5AC JUMP JUMPDEST PUSH3 0xAD7 PUSH3 0xB7C JUMP JUMPDEST PUSH1 0x1 PUSH1 0x1 PUSH1 0xA0 SHL SUB DUP2 AND PUSH3 0xB07 JUMPI PUSH1 0x40 MLOAD PUSH4 0x1E4FBDF7 PUSH1 0xE0 SHL DUP2 MSTORE PUSH1 0x0 PUSH1 0x4 DUP3 ADD MSTORE PUSH1 0x24 ADD JUMPDEST PUSH1 0x40 MLOAD DUP1 SWAP2 SUB SWAP1 REVERT JUMPDEST PUSH3 0xB12 DUP2 PUSH3 0xBAB JUMP JUMPDEST POP JUMP JUMPDEST PUSH3 0xB1F PUSH3 0xB7C JUMP JUMPDEST PUSH1 0x1 PUSH1 0x1 PUSH1 0xA0 SHL SUB DUP3 AND PUSH1 0x0 DUP2 DUP2 MSTORE PUSH1 0x6 PUSH1 0x20 SWAP1 DUP2 MSTORE PUSH1 0x40 SWAP2 DUP3 SWAP1 KECCAK256 DUP1 SLOAD PUSH1 0xFF NOT AND DUP6 ISZERO ISZERO SWAP1 DUP2 OR SWAP1 SWAP2 SSTORE DUP3 MLOAD SWAP4 DUP5 MSTORE SWAP1 DUP4 ADD MSTORE PUSH32 0x26F4D50B5F8CCB0A0593149470D0ABABAE355ACCBE102BF6038A9A2CD32E398B SWAP2 ADD PUSH3 0x5AC JUMP JUMPDEST PUSH1 0x0 SLOAD PUSH1 0x1 PUSH1 0x1 PUSH1 0xA0 SHL SUB AND CALLER EQ PUSH3 0x6F2 JUMPI PUSH1 0x40 MLOAD PUSH4 0x118CDAA7 PUSH1 0xE0 SHL DUP2 MSTORE CALLER PUSH1 0x4 DUP3 ADD MSTORE PUSH1 0x24 ADD PUSH3 0xAFE JUMP JUMPDEST PUSH1 0x0 DUP1 SLOAD PUSH1 0x1 PUSH1 0x1 PUSH1 0xA0 SHL SUB DUP4 DUP2 AND PUSH1 0x1 PUSH1 0x1 PUSH1 0xA0 SHL SUB NOT DUP4 AND DUP2 OR DUP5 SSTORE PUSH1 0x40 MLOAD SWAP2 SWAP1 SWAP3 AND SWAP3 DUP4 SWAP2 PUSH32 0x8BE0079C531659141344CD1FD0A4F28419497F9722A3DAAFE3B4186F6B6457E0 SWAP2 SWAP1 LOG3 POP POP JUMP JUMPDEST PUSH2 0x1748 DUP1 PUSH3 0xE53 DUP4 CODECOPY ADD SWAP1 JUMP JUMPDEST PUSH1 0x1 PUSH1 0x1 PUSH1 0xA0 SHL SUB DUP2 AND DUP2 EQ PUSH3 0xB12 JUMPI PUSH1 0x0 DUP1 REVERT JUMPDEST PUSH1 0x0 PUSH1 0x20 DUP3 DUP5 SUB SLT ISZERO PUSH3 0xC32 JUMPI PUSH1 0x0 DUP1 REVERT JUMPDEST DUP2 CALLDATALOAD PUSH3 0xC3F DUP2 PUSH3 0xC09 JUMP JUMPDEST SWAP4 SWAP3 POP POP POP JUMP JUMPDEST PUSH1 0x0 DUP1 PUSH1 0x0 PUSH1 0x60 DUP5 DUP7 SUB SLT ISZERO PUSH3 0xC5C JUMPI PUSH1 0x0 DUP1 REVERT JUMPDEST DUP4 CALLDATALOAD PUSH3 0xC69 DUP2 PUSH3 0xC09 JUMP JUMPDEST SWAP6 PUSH1 0x20 DUP6 ADD CALLDATALOAD SWAP6 POP PUSH1 0x40 SWAP1 SWAP5 ADD CALLDATALOAD SWAP4 SWAP3 POP POP POP JUMP JUMPDEST DUP1 CALLDATALOAD DUP1 ISZERO ISZERO DUP2 EQ PUSH3 0xC8F JUMPI PUSH1 0x0 DUP1 REVERT JUMPDEST SWAP2 SWAP1 POP JUMP JUMPDEST PUSH1 0x0 DUP1 PUSH1 0x40 DUP4 DUP6 SUB SLT ISZERO PUSH3 0xCA8 JUMPI PUSH1 0x0 DUP1 REVERT JUMPDEST DUP3 CALLDATALOAD PUSH3 0xCB5 DUP2 PUSH3 0xC09 JUMP JUMPDEST SWAP2 POP PUSH3 0xCC5 PUSH1 0x20 DUP5 ADD PUSH3 0xC7E JUMP JUMPDEST SWAP1 POP SWAP3 POP SWAP3 SWAP1 POP JUMP JUMPDEST PUSH1 0x0 DUP1 PUSH1 0x0 PUSH1 0x60 DUP5 DUP7 SUB SLT ISZERO PUSH3 0xCE4 JUMPI PUSH1 0x0 DUP1 REVERT JUMPDEST DUP4 CALLDATALOAD PUSH3 0xCF1 DUP2 PUSH3 0xC09 JUMP JUMPDEST SWAP3 POP PUSH1 0x20 DUP5 ADD CALLDATALOAD PUSH3 0xD03 DUP2 PUSH3 0xC09 JUMP JUMPDEST SWAP3 SWAP6 SWAP3 SWAP5 POP POP POP PUSH1 0x40 SWAP2 SWAP1 SWAP2 ADD CALLDATALOAD SWAP1 JUMP JUMPDEST PUSH1 0x0 DUP1 PUSH1 0x40 DUP4 DUP6 SUB SLT ISZERO PUSH3 0xD28 JUMPI PUSH1 0x0 DUP1 REVERT JUMPDEST DUP3 CALLDATALOAD PUSH3 0xD35 DUP2 PUSH3 0xC09 JUMP JUMPDEST SWAP2 POP PUSH1 0x20 DUP4 ADD CALLDATALOAD PUSH3 0xD47 DUP2 PUSH3 0xC09 JUMP JUMPDEST DUP1 SWAP2 POP POP SWAP3 POP SWAP3 SWAP1 POP JUMP JUMPDEST PUSH1 0x0 PUSH1 0x20 DUP3 DUP5 SUB SLT ISZERO PUSH3 0xD65 JUMPI PUSH1 0x0 DUP1 REVERT JUMPDEST POP CALLDATALOAD SWAP2 SWAP1 POP JUMP JUMPDEST PUSH1 0x0 PUSH1 0x20 DUP3 DUP5 SUB SLT ISZERO PUSH3 0xD7F JUMPI PUSH1 0x0 DUP1 REVERT JUMPDEST PUSH3 0xC3F DUP3 PUSH3 0xC7E JUMP JUMPDEST PUSH1 0x20 DUP1 DUP3 MSTORE DUP3 MLOAD DUP3 DUP3 ADD DUP2 SWAP1 MSTORE PUSH1 0x0 SWAP2 SWAP1 PUSH1 0x40 SWAP1 DUP2 DUP6 ADD SWAP1 DUP7 DUP5 ADD DUP6 JUMPDEST DUP3 DUP2 LT ISZERO PUSH3 0xDF1 JUMPI DUP2 MLOAD DUP1 MLOAD PUSH1 0x1 PUSH1 0x1 PUSH1 0xA0 SHL SUB SWAP1 DUP2 AND DUP7 MSTORE DUP8 DUP3 ADD MLOAD AND DUP8 DUP7 ADD MSTORE DUP6 DUP2 ADD MLOAD DUP7 DUP7 ADD MSTORE PUSH1 0x60 SWAP1 DUP2 ADD MLOAD ISZERO ISZERO SWAP1 DUP6 ADD MSTORE PUSH1 0x80 SWAP1 SWAP4 ADD SWAP3 SWAP1 DUP6 ADD SWAP1 PUSH1 0x1 ADD PUSH3 0xDA7 JUMP JUMPDEST POP SWAP2 SWAP8 SWAP7 POP POP POP POP POP POP POP JUMP JUMPDEST PUSH4 0x4E487B71 PUSH1 0xE0 SHL PUSH1 0x0 MSTORE PUSH1 0x32 PUSH1 0x4 MSTORE PUSH1 0x24 PUSH1 0x0 REVERT JUMPDEST PUSH1 0x0 PUSH1 0x1 DUP3 ADD PUSH3 0xE35 JUMPI PUSH4 0x4E487B71 PUSH1 0xE0 SHL PUSH1 0x0 MSTORE PUSH1 0x11 PUSH1 0x4 MSTORE PUSH1 0x24 PUSH1 0x0 REVERT JUMPDEST POP PUSH1 0x1 ADD SWAP1 JUMP JUMPDEST PUSH4 0x4E487B71 PUSH1 0xE0 SHL PUSH1 0x0 MSTORE PUSH1 0x41 PUSH1 0x4 MSTORE PUSH1 0x24 PUSH1 0x0 REVERT INVALID PUSH1 0xA0 PUSH1 0x40 MSTORE CALLVALUE DUP1 ISZERO PUSH3 0x11 JUMPI PUSH1 0x0 DUP1 REVERT JUMPDEST POP PUSH1 0x40 MLOAD PUSH3 0x1748 CODESIZE SUB DUP1 PUSH3 0x1748 DUP4 CODECOPY DUP2 ADD PUSH1 0x40 DUP2 SWAP1 MSTORE PUSH3 0x34 SWAP2 PUSH3 0x120 JUMP JUMPDEST DUP4 PUSH1 0x1 PUSH1 0x1 PUSH1 0xA0 SHL SUB DUP2 AND PUSH3 0x64 JUMPI PUSH1 0x40 MLOAD PUSH4 0x1E4FBDF7 PUSH1 0xE0 SHL DUP2 MSTORE PUSH1 0x0 PUSH1 0x4 DUP3 ADD MSTORE PUSH1 0x24 ADD PUSH1 0x40 MLOAD DUP1 SWAP2 SUB SWAP1 REVERT JUMPDEST PUSH3 0x6F DUP2 PUSH3 0xB7 JUMP JUMPDEST POP PUSH1 0x1 DUP1 SSTORE PUSH1 0x1 PUSH1 0x1 PUSH1 0xA0 SHL SUB DUP4 AND PUSH3 0x9C JUMPI PUSH1 0x40 MLOAD PUSH4 0xD92E233D PUSH1 0xE0 SHL DUP2 MSTORE PUSH1 0x4 ADD PUSH1 0x40 MLOAD DUP1 SWAP2 SUB SWAP1 REVERT JUMPDEST PUSH1 0x1 PUSH1 0x1 PUSH1 0xA0 SHL SUB SWAP1 SWAP3 AND PUSH1 0x80 MSTORE PUSH1 0x2 SSTORE PUSH1 0x3 SSTORE POP PUSH3 0x16D JUMP JUMPDEST PUSH1 0x0 DUP1 SLOAD PUSH1 0x1 PUSH1 0x1 PUSH1 0xA0 SHL SUB DUP4 DUP2 AND PUSH1 0x1 PUSH1 0x1 PUSH1 0xA0 SHL SUB NOT DUP4 AND DUP2 OR DUP5 SSTORE PUSH1 0x40 MLOAD SWAP2 SWAP1 SWAP3 AND SWAP3 DUP4 SWAP2 PUSH32 0x8BE0079C531659141344CD1FD0A4F28419497F9722A3DAAFE3B4186F6B6457E0 SWAP2 SWAP1 LOG3 POP POP JUMP JUMPDEST PUSH1 0x1 PUSH1 0x1 PUSH1 0xA0 SHL SUB DUP2 AND DUP2 EQ PUSH3 0x11D JUMPI PUSH1 0x0 DUP1 REVERT JUMPDEST POP JUMP JUMPDEST PUSH1 0x0 DUP1 PUSH1 0x0 DUP1 PUSH1 0x80 DUP6 DUP8 SUB SLT ISZERO PUSH3 0x137 JUMPI PUSH1 0x0 DUP1 REVERT JUMPDEST DUP5 MLOAD PUSH3 0x144 DUP2 PUSH3 0x107 JUMP JUMPDEST PUSH1 0x20 DUP7 ADD MLOAD SWAP1 SWAP5 POP PUSH3 0x157 DUP2 PUSH3 0x107 JUMP JUMPDEST PUSH1 0x40 DUP7 ADD MLOAD PUSH1 0x60 SWAP1 SWAP7 ADD MLOAD SWAP5 SWAP8 SWAP1 SWAP7 POP SWAP3 POP POP POP JUMP JUMPDEST PUSH1 0x80 MLOAD PUSH2 0x15A3 PUSH3 0x1A5 PUSH1 0x0 CODECOPY PUSH1 0x0 DUP2 DUP2 PUSH2 0x156 ADD MSTORE DUP2 DUP2 PUSH2 0x445 ADD MSTORE DUP2 DUP2 PUSH2 0x6F0 ADD MSTORE DUP2 DUP2 PUSH2 0xA10 ADD MSTORE PUSH2 0xD40 ADD MSTORE PUSH2 0x15A3 PUSH1 0x0 RETURN INVALID PUSH1 0x80 PUSH1 0x40 MSTORE PUSH1 0x4 CALLDATASIZE LT PUSH2 0x109 JUMPI PUSH1 0x0 CALLDATALOAD PUSH1 0xE0 SHR DUP1 PUSH4 0x72CB3E82 GT PUSH2 0x95 JUMPI DUP1 PUSH4 0xA322F948 GT PUSH2 0x64 JUMPI DUP1 PUSH4 0xA322F948 EQ PUSH2 0x2D4 JUMPI DUP1 PUSH4 0xAC5C7C53 EQ PUSH2 0x2F4 JUMPI DUP1 PUSH4 0xD9EF52D1 EQ PUSH2 0x324 JUMPI DUP1 PUSH4 0xF103EAAF EQ PUSH2 0x339 JUMPI DUP1 PUSH4 0xF2FDE38B EQ PUSH2 0x34F JUMPI PUSH1 0x0 DUP1 REVERT JUMPDEST DUP1 PUSH4 0x72CB3E82 EQ PUSH2 0x268 JUMPI DUP1 PUSH4 0x86779B52 EQ PUSH2 0x28C JUMPI DUP1 PUSH4 0x8DA5CB5B EQ PUSH2 0x29F JUMPI DUP1 PUSH4 0x968BA8EF EQ PUSH2 0x2BD JUMPI PUSH1 0x0 DUP1 REVERT JUMPDEST DUP1 PUSH4 0x6207D31B GT PUSH2 0xDC JUMPI DUP1 PUSH4 0x6207D31B EQ PUSH2 0x1D2 JUMPI DUP1 PUSH4 0x692A8A80 EQ PUSH2 0x200 JUMPI DUP1 PUSH4 0x6AE5C9B0 EQ PUSH2 0x220 JUMPI DUP1 PUSH4 0x6B6C616D EQ PUSH2 0x240 JUMPI DUP1 PUSH4 0x715018A6 EQ PUSH2 0x253 JUMPI PUSH1 0x0 DUP1 REVERT JUMPDEST DUP1 PUSH4 0x7E7080A EQ PUSH2 0x10E JUMPI DUP1 PUSH4 0x47CCCA02 EQ PUSH2 0x144 JUMPI DUP1 PUSH4 0x5F5BAFCC EQ PUSH2 0x190 JUMPI DUP1 PUSH4 0x5FD5BFFD EQ PUSH2 0x1B0 JUMPI JUMPDEST PUSH1 0x0 DUP1 REVERT JUMPDEST CALLVALUE DUP1 ISZERO PUSH2 0x11A JUMPI PUSH1 0x0 DUP1 REVERT JUMPDEST POP PUSH2 0x12E PUSH2 0x129 CALLDATASIZE PUSH1 0x4 PUSH2 0x105E JUMP JUMPDEST PUSH2 0x36F JUMP JUMPDEST PUSH1 0x40 MLOAD PUSH2 0x13B SWAP2 SWAP1 PUSH2 0x1079 JUMP JUMPDEST PUSH1 0x40 MLOAD DUP1 SWAP2 SUB SWAP1 RETURN JUMPDEST CALLVALUE DUP1 ISZERO PUSH2 0x150 JUMPI PUSH1 0x0 DUP1 REVERT JUMPDEST POP PUSH2 0x178 PUSH32 0x0 DUP2 JUMP JUMPDEST PUSH1 0x40 MLOAD PUSH1 0x1 PUSH1 0x1 PUSH1 0xA0 SHL SUB SWAP1 SWAP2 AND DUP2 MSTORE PUSH1 0x20 ADD PUSH2 0x13B JUMP JUMPDEST CALLVALUE DUP1 ISZERO PUSH2 0x19C JUMPI PUSH1 0x0 DUP1 REVERT JUMPDEST POP PUSH2 0x178 PUSH2 0x1AB CALLDATASIZE PUSH1 0x4 PUSH2 0x10C7 JUMP JUMPDEST PUSH2 0x3EC JUMP JUMPDEST CALLVALUE DUP1 ISZERO PUSH2 0x1BC JUMPI PUSH1 0x0 DUP1 REVERT JUMPDEST POP PUSH2 0x1D0 PUSH2 0x1CB CALLDATASIZE PUSH1 0x4 PUSH2 0x1102 JUMP JUMPDEST PUSH2 0x424 JUMP JUMPDEST STOP JUMPDEST CALLVALUE DUP1 ISZERO PUSH2 0x1DE JUMPI PUSH1 0x0 DUP1 REVERT JUMPDEST POP PUSH2 0x1F2 PUSH2 0x1ED CALLDATASIZE PUSH1 0x4 PUSH2 0x1135 JUMP JUMPDEST PUSH2 0x5A1 JUMP JUMPDEST PUSH1 0x40 MLOAD PUSH2 0x13B SWAP3 SWAP2 SWAP1 PUSH2 0x11A5 JUMP JUMPDEST CALLVALUE DUP1 ISZERO PUSH2 0x20C JUMPI PUSH1 0x0 DUP1 REVERT JUMPDEST POP PUSH2 0x1D0 PUSH2 0x21B CALLDATASIZE PUSH1 0x4 PUSH2 0x11C6 JUMP JUMPDEST PUSH2 0x651 JUMP JUMPDEST CALLVALUE DUP1 ISZERO PUSH2 0x22C JUMPI PUSH1 0x0 DUP1 REVERT JUMPDEST POP PUSH2 0x1D0 PUSH2 0x23B CALLDATASIZE PUSH1 0x4 PUSH2 0x11C6 JUMP JUMPDEST PUSH2 0x68C JUMP JUMPDEST PUSH2 0x1D0 PUSH2 0x24E CALLDATASIZE PUSH1 0x4 PUSH2 0x1282 JUMP JUMPDEST PUSH2 0x6C7 JUMP JUMPDEST CALLVALUE DUP1 ISZERO PUSH2 0x25F JUMPI PUSH1 0x0 DUP1 REVERT JUMPDEST POP PUSH2 0x1D0 PUSH2 0x9D3 JUMP JUMPDEST CALLVALUE DUP1 ISZERO PUSH2 0x274 JUMPI PUSH1 0x0 DUP1 REVERT JUMPDEST POP PUSH2 0x27E PUSH1 0x2 SLOAD DUP2 JUMP JUMPDEST PUSH1 0x40 MLOAD SWAP1 DUP2 MSTORE PUSH1 0x20 ADD PUSH2 0x13B JUMP JUMPDEST PUSH2 0x1D0 PUSH2 0x29A CALLDATASIZE PUSH1 0x4 PUSH2 0x12D9 JUMP JUMPDEST PUSH2 0x9E7 JUMP JUMPDEST CALLVALUE DUP1 ISZERO PUSH2 0x2AB JUMPI PUSH1 0x0 DUP1 REVERT JUMPDEST POP PUSH1 0x0 SLOAD PUSH1 0x1 PUSH1 0x1 PUSH1 0xA0 SHL SUB AND PUSH2 0x178 JUMP JUMPDEST CALLVALUE DUP1 ISZERO PUSH2 0x2C9 JUMPI PUSH1 0x0 DUP1 REVERT JUMPDEST POP PUSH2 0x27E PUSH3 0x15180 DUP2 JUMP JUMPDEST CALLVALUE DUP1 ISZERO PUSH2 0x2E0 JUMPI PUSH1 0x0 DUP1 REVERT JUMPDEST POP PUSH2 0x1D0 PUSH2 0x2EF CALLDATASIZE PUSH1 0x4 PUSH2 0x1102 JUMP JUMPDEST PUSH2 0xCCE JUMP JUMPDEST CALLVALUE DUP1 ISZERO PUSH2 0x300 JUMPI PUSH1 0x0 DUP1 REVERT JUMPDEST POP PUSH2 0x27E PUSH2 0x30F CALLDATASIZE PUSH1 0x4 PUSH2 0x105E JUMP JUMPDEST PUSH1 0x6 PUSH1 0x20 MSTORE PUSH1 0x0 SWAP1 DUP2 MSTORE PUSH1 0x40 SWAP1 KECCAK256 PUSH1 0xA ADD SLOAD DUP2 JUMP JUMPDEST CALLVALUE DUP1 ISZERO PUSH2 0x330 JUMPI PUSH1 0x0 DUP1 REVERT JUMPDEST POP PUSH2 0x27E PUSH1 0xA DUP2 JUMP JUMPDEST CALLVALUE DUP1 ISZERO PUSH2 0x345 JUMPI PUSH1 0x0 DUP1 REVERT JUMPDEST POP PUSH2 0x27E PUSH1 0x3 SLOAD DUP2 JUMP JUMPDEST CALLVALUE DUP1 ISZERO PUSH2 0x35B JUMPI PUSH1 0x0 DUP1 REVERT JUMPDEST POP PUSH2 0x1D0 PUSH2 0x36A CALLDATASIZE PUSH1 0x4 PUSH2 0x105E JUMP JUMPDEST PUSH2 0xE35 JUMP JUMPDEST PUSH1 0x1 PUSH1 0x1 PUSH1 0xA0 SHL SUB DUP2 AND PUSH1 0x0 SWAP1 DUP2 MSTORE PUSH1 0x5 PUSH1 0x20 SWAP1 DUP2 MSTORE PUSH1 0x40 DUP1 DUP4 KECCAK256 DUP1 SLOAD DUP3 MLOAD DUP2 DUP6 MUL DUP2 ADD DUP6 ADD SWAP1 SWAP4 MSTORE DUP1 DUP4 MSTORE PUSH1 0x60 SWAP5 SWAP3 SWAP4 SWAP2 SWAP3 SWAP1 SWAP2 DUP5 ADD JUMPDEST DUP3 DUP3 LT ISZERO PUSH2 0x3E1 JUMPI PUSH1 0x0 DUP5 DUP2 MSTORE PUSH1 0x20 SWAP1 DUP2 SWAP1 KECCAK256 PUSH1 0x40 DUP1 MLOAD DUP1 DUP5 ADD SWAP1 SWAP2 MSTORE SWAP1 DUP5 ADD SLOAD PUSH1 0x1 PUSH1 0x1 PUSH1 0xA0 SHL SUB AND DUP2 MSTORE DUP3 MSTORE PUSH1 0x1 SWAP1 SWAP3 ADD SWAP2 ADD PUSH2 0x3A7 JUMP JUMPDEST POP POP POP POP SWAP1 POP SWAP2 SWAP1 POP JUMP JUMPDEST PUSH1 0x5 PUSH1 0x20 MSTORE DUP2 PUSH1 0x0 MSTORE PUSH1 0x40 PUSH1 0x0 KECCAK256 DUP2 DUP2 SLOAD DUP2 LT PUSH2 0x408 JUMPI PUSH1 0x0 DUP1 REVERT JUMPDEST PUSH1 0x0 SWAP2 DUP3 MSTORE PUSH1 0x20 SWAP1 SWAP2 KECCAK256 ADD SLOAD PUSH1 0x1 PUSH1 0x1 PUSH1 0xA0 SHL SUB AND SWAP2 POP DUP3 SWAP1 POP JUMP JUMPDEST PUSH1 0x40 MLOAD PUSH4 0x70A08231 PUSH1 0xE0 SHL DUP2 MSTORE PUSH1 0x1 PUSH1 0x1 PUSH1 0xA0 SHL SUB DUP1 DUP5 AND PUSH1 0x4 DUP4 ADD MSTORE DUP4 SWAP2 PUSH32 0x0 SWAP1 SWAP2 AND SWAP1 PUSH4 0x70A08231 SWAP1 PUSH1 0x24 ADD PUSH1 0x20 PUSH1 0x40 MLOAD DUP1 DUP4 SUB DUP2 DUP7 GAS STATICCALL ISZERO DUP1 ISZERO PUSH2 0x48E JUMPI RETURNDATASIZE PUSH1 0x0 DUP1 RETURNDATACOPY RETURNDATASIZE PUSH1 0x0 REVERT JUMPDEST POP POP POP POP PUSH1 0x40 MLOAD RETURNDATASIZE PUSH1 0x1F NOT PUSH1 0x1F DUP3 ADD AND DUP3 ADD DUP1 PUSH1 0x40 MSTORE POP DUP2 ADD SWAP1 PUSH2 0x4B2 SWAP2 SWAP1 PUSH2 0x1341 JUMP JUMPDEST PUSH1 0x0 SUB PUSH2 0x4D2 JUMPI PUSH1 0x40 MLOAD PUSH4 0x6AF73FB1 PUSH1 0xE1 SHL DUP2 MSTORE PUSH1 0x4 ADD PUSH1 0x40 MLOAD DUP1 SWAP2 SUB SWAP1 REVERT JUMPDEST CALLER PUSH1 0x0 SWAP1 DUP2 MSTORE PUSH1 0x4 PUSH1 0x20 SWAP1 DUP2 MSTORE PUSH1 0x40 DUP1 DUP4 KECCAK256 PUSH1 0x1 PUSH1 0x1 PUSH1 0xA0 SHL SUB DUP8 AND DUP5 MSTORE SWAP1 SWAP2 MSTORE DUP2 KECCAK256 DUP1 SLOAD SWAP1 SWAP2 SUB PUSH2 0x517 JUMPI PUSH1 0x40 MLOAD PUSH4 0x1A00354F PUSH1 0xE0 SHL DUP2 MSTORE PUSH1 0x4 ADD PUSH1 0x40 MLOAD DUP1 SWAP2 SUB SWAP1 REVERT JUMPDEST DUP1 SLOAD TIMESTAMP LT PUSH2 0x538 JUMPI PUSH1 0x40 MLOAD PUSH4 0x6406FA15 PUSH1 0xE0 SHL DUP2 MSTORE PUSH1 0x4 ADD PUSH1 0x40 MLOAD DUP1 SWAP2 SUB SWAP1 REVERT JUMPDEST PUSH2 0x543 DUP5 CALLER DUP6 PUSH2 0xE78 JUMP JUMPDEST PUSH1 0x40 DUP1 MLOAD PUSH1 0x20 DUP2 ADD SWAP1 SWAP2 MSTORE PUSH1 0x0 DUP2 MSTORE PUSH1 0x1 DUP3 ADD SWAP1 PUSH2 0x561 SWAP1 DUP3 PUSH2 0x13E4 JUMP JUMPDEST POP PUSH1 0x0 DUP1 DUP3 SSTORE PUSH1 0x40 MLOAD CALLER SWAP2 PUSH1 0x1 PUSH1 0x1 PUSH1 0xA0 SHL SUB DUP8 AND SWAP2 PUSH32 0x4F63FF9C987BA9233A93B549BDB283252838F696FE1349EF76A85E2AE7F822E3 SWAP2 SWAP1 LOG3 POP POP POP POP JUMP JUMPDEST PUSH1 0x4 PUSH1 0x20 SWAP1 DUP2 MSTORE PUSH1 0x0 SWAP3 DUP4 MSTORE PUSH1 0x40 DUP1 DUP5 KECCAK256 SWAP1 SWAP2 MSTORE SWAP1 DUP3 MSTORE SWAP1 KECCAK256 DUP1 SLOAD PUSH1 0x1 DUP3 ADD DUP1 SLOAD SWAP2 SWAP3 SWAP2 PUSH2 0x5CE SWAP1 PUSH2 0x135A JUMP JUMPDEST DUP1 PUSH1 0x1F ADD PUSH1 0x20 DUP1 SWAP2 DIV MUL PUSH1 0x20 ADD PUSH1 0x40 MLOAD SWAP1 DUP2 ADD PUSH1 0x40 MSTORE DUP1 SWAP3 SWAP2 SWAP1 DUP2 DUP2 MSTORE PUSH1 0x20 ADD DUP3 DUP1 SLOAD PUSH2 0x5FA SWAP1 PUSH2 0x135A JUMP JUMPDEST DUP1 ISZERO PUSH2 0x647 JUMPI DUP1 PUSH1 0x1F LT PUSH2 0x61C JUMPI PUSH2 0x100 DUP1 DUP4 SLOAD DIV MUL DUP4 MSTORE SWAP2 PUSH1 0x20 ADD SWAP2 PUSH2 0x647 JUMP JUMPDEST DUP3 ADD SWAP2 SWAP1 PUSH1 0x0 MSTORE PUSH1 0x20 PUSH1 0x0 KECCAK256 SWAP1 JUMPDEST DUP2 SLOAD DUP2 MSTORE SWAP1 PUSH1 0x1 ADD SWAP1 PUSH1 0x20 ADD DUP1 DUP4 GT PUSH2 0x62A JUMPI DUP3 SWAP1 SUB PUSH1 0x1F AND DUP3 ADD SWAP2 JUMPDEST POP POP POP POP POP SWAP1 POP DUP3 JUMP JUMPDEST PUSH2 0x659 PUSH2 0xF81 JUMP JUMPDEST PUSH1 0x3 DUP2 SWAP1 SSTORE PUSH1 0x40 MLOAD DUP2 SWAP1 PUSH32 0x526F715CFC9D0F558989A57A9E26F5A05AC1042D2325F75D59BB381FA2A47DE2 SWAP1 PUSH1 0x0 SWAP1 LOG2 POP JUMP JUMPDEST PUSH2 0x694 PUSH2 0xF81 JUMP JUMPDEST PUSH1 0x2 DUP2 SWAP1 SSTORE PUSH1 0x40 MLOAD DUP2 SWAP1 PUSH32 0xEB144F1C5F6EC578479C4044F98979B433EE3348BF4C1EECB39F0E7E3FDB3C8B SWAP1 PUSH1 0x0 SWAP1 LOG2 POP JUMP JUMPDEST PUSH2 0x6CF PUSH2 0xFAE JUMP JUMPDEST PUSH1 0x40 MLOAD PUSH4 0x70A08231 PUSH1 0xE0 SHL DUP2 MSTORE PUSH1 0x1 PUSH1 0x1 PUSH1 0xA0 SHL SUB DUP1 DUP6 AND PUSH1 0x4 DUP4 ADD MSTORE DUP5 SWAP2 PUSH32 0x0 SWAP1 SWAP2 AND SWAP1 PUSH4 0x70A08231 SWAP1 PUSH1 0x24 ADD PUSH1 0x20 PUSH1 0x40 MLOAD DUP1 DUP4 SUB DUP2 DUP7 GAS STATICCALL ISZERO DUP1 ISZERO PUSH2 0x739 JUMPI RETURNDATASIZE PUSH1 0x0 DUP1 RETURNDATACOPY RETURNDATASIZE PUSH1 0x0 REVERT JUMPDEST POP POP POP POP PUSH1 0x40 MLOAD RETURNDATASIZE PUSH1 0x1F NOT PUSH1 0x1F DUP3 ADD AND DUP3 ADD DUP1 PUSH1 0x40 MSTORE POP DUP2 ADD SWAP1 PUSH2 0x75D SWAP2 SWAP1 PUSH2 0x1341 JUMP JUMPDEST PUSH1 0x0 SUB PUSH2 0x77D JUMPI PUSH1 0x40 MLOAD PUSH4 0x6AF73FB1 PUSH1 0xE1 SHL DUP2 MSTORE PUSH1 0x4 ADD PUSH1 0x40 MLOAD DUP1 SWAP2 SUB SWAP1 REVERT JUMPDEST CALLER PUSH1 0x0 SWAP1 DUP2 MSTORE PUSH1 0x4 PUSH1 0x20 SWAP1 DUP2 MSTORE PUSH1 0x40 DUP1 DUP4 KECCAK256 PUSH1 0x1 PUSH1 0x1 PUSH1 0xA0 SHL SUB DUP9 AND DUP5 MSTORE SWAP1 SWAP2 MSTORE SWAP1 KECCAK256 DUP1 SLOAD ISZERO PUSH2 0x7C0 JUMPI PUSH1 0x40 MLOAD PUSH4 0x2FEC5099 PUSH1 0xE1 SHL DUP2 MSTORE PUSH1 0x4 ADD PUSH1 0x40 MLOAD DUP1 SWAP2 SUB SWAP1 REVERT JUMPDEST TIMESTAMP PUSH2 0x7CE PUSH3 0x15180 DUP3 PUSH2 0x14BA JUMP JUMPDEST DUP5 LT ISZERO PUSH2 0x7EE JUMPI PUSH1 0x40 MLOAD PUSH4 0x49CB49F5 PUSH1 0xE0 SHL DUP2 MSTORE PUSH1 0x4 ADD PUSH1 0x40 MLOAD DUP1 SWAP2 SUB SWAP1 REVERT JUMPDEST PUSH1 0x0 PUSH2 0x7FA DUP3 DUP7 PUSH2 0x14CD JUMP JUMPDEST SWAP1 POP PUSH1 0x0 PUSH3 0x15180 PUSH1 0x2 SLOAD DUP4 PUSH2 0x810 SWAP2 SWAP1 PUSH2 0x14E0 JUMP JUMPDEST PUSH2 0x81A SWAP2 SWAP1 PUSH2 0x150D JUMP JUMPDEST SWAP1 POP PUSH1 0x3 SLOAD DUP2 PUSH2 0x82A SWAP2 SWAP1 PUSH2 0x14BA JUMP JUMPDEST CALLVALUE LT ISZERO PUSH2 0x84A JUMPI PUSH1 0x40 MLOAD PUSH4 0xD90D516F PUSH1 0xE0 SHL DUP2 MSTORE PUSH1 0x4 ADD PUSH1 0x40 MLOAD DUP1 SWAP2 SUB SWAP1 REVERT JUMPDEST PUSH1 0x0 DUP1 SLOAD PUSH1 0x3 SLOAD PUSH1 0x40 MLOAD PUSH1 0x1 PUSH1 0x1 PUSH1 0xA0 SHL SUB SWAP1 SWAP3 AND SWAP3 DUP2 ISZERO PUSH2 0x8FC MUL SWAP3 SWAP1 DUP2 DUP2 DUP2 DUP6 DUP9 DUP9 CALL SWAP4 POP POP POP POP ISZERO DUP1 ISZERO PUSH2 0x885 JUMPI RETURNDATASIZE PUSH1 0x0 DUP1 RETURNDATACOPY RETURNDATASIZE PUSH1 0x0 REVERT JUMPDEST POP PUSH1 0x40 MLOAD PUSH1 0x1 PUSH1 0x1 PUSH1 0xA0 SHL SUB DUP10 AND SWAP1 DUP3 ISZERO PUSH2 0x8FC MUL SWAP1 DUP4 SWAP1 PUSH1 0x0 DUP2 DUP2 DUP2 DUP6 DUP9 DUP9 CALL SWAP4 POP POP POP POP ISZERO DUP1 ISZERO PUSH2 0x8BC JUMPI RETURNDATASIZE PUSH1 0x0 DUP1 RETURNDATACOPY RETURNDATASIZE PUSH1 0x0 REVERT JUMPDEST POP PUSH1 0x3 SLOAD PUSH2 0x8CA SWAP1 DUP3 PUSH2 0x14BA JUMP JUMPDEST CALLVALUE GT ISZERO PUSH2 0x918 JUMPI PUSH1 0x3 SLOAD CALLER SWAP1 PUSH2 0x8FC SWAP1 PUSH2 0x8E4 SWAP1 DUP5 PUSH2 0x14BA JUMP JUMPDEST PUSH2 0x8EE SWAP1 CALLVALUE PUSH2 0x14CD JUMP JUMPDEST PUSH1 0x40 MLOAD DUP2 ISZERO SWAP1 SWAP3 MUL SWAP2 PUSH1 0x0 DUP2 DUP2 DUP2 DUP6 DUP9 DUP9 CALL SWAP4 POP POP POP POP ISZERO DUP1 ISZERO PUSH2 0x916 JUMPI RETURNDATASIZE PUSH1 0x0 DUP1 RETURNDATACOPY RETURNDATASIZE PUSH1 0x0 REVERT JUMPDEST POP JUMPDEST PUSH1 0x1 PUSH1 0x1 PUSH1 0xA0 SHL SUB DUP9 DUP2 AND PUSH1 0x0 SWAP1 DUP2 MSTORE PUSH1 0x5 PUSH1 0x20 SWAP1 DUP2 MSTORE PUSH1 0x40 DUP1 DUP4 KECCAK256 DUP2 MLOAD DUP1 DUP5 ADD SWAP1 SWAP3 MSTORE CALLER DUP3 MSTORE DUP1 SLOAD PUSH1 0x1 DUP1 DUP3 ADD DUP4 SSTORE SWAP2 DUP6 MSTORE SWAP3 SWAP1 SWAP4 KECCAK256 SWAP1 MLOAD SWAP2 ADD DUP1 SLOAD PUSH1 0x1 PUSH1 0x1 PUSH1 0xA0 SHL SUB NOT AND SWAP2 SWAP1 SWAP4 AND OR SWAP1 SWAP2 SSTORE DUP5 ADD PUSH2 0x973 DUP9 DUP3 PUSH2 0x13E4 JUMP JUMPDEST POP DUP6 DUP5 SSTORE PUSH1 0x40 MLOAD DUP7 SWAP1 CALLER SWAP1 PUSH1 0x1 PUSH1 0x1 PUSH1 0xA0 SHL SUB DUP12 AND SWAP1 PUSH32 0xA096D55FE0953227EB38BD4CAE5AB7F659A80D663B3B9E889999E9C90891423D SWAP1 PUSH2 0x9B8 SWAP1 DUP13 SWAP1 DUP10 SWAP1 PUSH2 0x1521 JUMP JUMPDEST PUSH1 0x40 MLOAD DUP1 SWAP2 SUB SWAP1 LOG4 POP POP POP POP POP PUSH2 0x9CE PUSH1 0x1 DUP1 SSTORE JUMP JUMPDEST POP POP POP JUMP JUMPDEST PUSH2 0x9DB PUSH2 0xF81 JUMP JUMPDEST PUSH2 0x9E5 PUSH1 0x0 PUSH2 0xFD8 JUMP JUMPDEST JUMP JUMPDEST PUSH2 0x9EF PUSH2 0xFAE JUMP JUMPDEST PUSH1 0x40 MLOAD PUSH4 0x70A08231 PUSH1 0xE0 SHL DUP2 MSTORE PUSH1 0x1 PUSH1 0x1 PUSH1 0xA0 SHL SUB DUP1 DUP7 AND PUSH1 0x4 DUP4 ADD MSTORE DUP6 SWAP2 PUSH32 0x0 SWAP1 SWAP2 AND SWAP1 PUSH4 0x70A08231 SWAP1 PUSH1 0x24 ADD PUSH1 0x20 PUSH1 0x40 MLOAD DUP1 DUP4 SUB DUP2 DUP7 GAS STATICCALL ISZERO DUP1 ISZERO PUSH2 0xA59 JUMPI RETURNDATASIZE PUSH1 0x0 DUP1 RETURNDATACOPY RETURNDATASIZE PUSH1 0x0 REVERT JUMPDEST POP POP POP POP PUSH1 0x40 MLOAD RETURNDATASIZE PUSH1 0x1F NOT PUSH1 0x1F DUP3 ADD AND DUP3 ADD DUP1 PUSH1 0x40 MSTORE POP DUP2 ADD SWAP1 PUSH2 0xA7D SWAP2 SWAP1 PUSH2 0x1341 JUMP JUMPDEST PUSH1 0x0 SUB PUSH2 0xA9D JUMPI PUSH1 0x40 MLOAD PUSH4 0x6AF73FB1 PUSH1 0xE1 SHL DUP2 MSTORE PUSH1 0x4 ADD PUSH1 0x40 MLOAD DUP1 SWAP2 SUB SWAP1 REVERT JUMPDEST CALLER PUSH1 0x0 SWAP1 DUP2 MSTORE PUSH1 0x4 PUSH1 0x20 SWAP1 DUP2 MSTORE PUSH1 0x40 DUP1 DUP4 KECCAK256 PUSH1 0x1 PUSH1 0x1 PUSH1 0xA0 SHL SUB DUP10 AND DUP5 MSTORE SWAP1 SWAP2 MSTORE DUP2 KECCAK256 DUP1 SLOAD SWAP1 SWAP2 TIMESTAMP SWAP2 SWAP1 SUB PUSH2 0xAE5 JUMPI PUSH1 0x40 MLOAD PUSH4 0x1A00354F PUSH1 0xE0 SHL DUP2 MSTORE PUSH1 0x4 ADD PUSH1 0x40 MLOAD DUP1 SWAP2 SUB SWAP1 REVERT JUMPDEST PUSH1 0x0 PUSH2 0xAF5 DUP4 PUSH1 0x0 ADD SLOAD DUP4 PUSH2 0x1028 JUMP JUMPDEST SWAP1 POP PUSH2 0xB04 PUSH3 0x15180 DUP3 PUSH2 0x14BA JUMP JUMPDEST DUP7 LT ISZERO PUSH2 0xB24 JUMPI PUSH1 0x40 MLOAD PUSH4 0x49CB49F5 PUSH1 0xE0 SHL DUP2 MSTORE PUSH1 0x4 ADD PUSH1 0x40 MLOAD DUP1 SWAP2 SUB SWAP1 REVERT JUMPDEST PUSH1 0x0 PUSH2 0xB30 DUP3 DUP9 PUSH2 0x14CD JUMP JUMPDEST SWAP1 POP PUSH1 0x0 PUSH3 0x15180 PUSH1 0x2 SLOAD DUP4 PUSH2 0xB46 SWAP2 SWAP1 PUSH2 0x14E0 JUMP JUMPDEST PUSH2 0xB50 SWAP2 SWAP1 PUSH2 0x150D JUMP JUMPDEST SWAP1 POP PUSH1 0x3 SLOAD DUP2 PUSH2 0xB60 SWAP2 SWAP1 PUSH2 0x14BA JUMP JUMPDEST CALLVALUE LT ISZERO PUSH2 0xB80 JUMPI PUSH1 0x40 MLOAD PUSH4 0xD90D516F PUSH1 0xE0 SHL DUP2 MSTORE PUSH1 0x4 ADD PUSH1 0x40 MLOAD DUP1 SWAP2 SUB SWAP1 REVERT JUMPDEST PUSH1 0x0 DUP1 SLOAD PUSH1 0x3 SLOAD PUSH1 0x40 MLOAD PUSH1 0x1 PUSH1 0x1 PUSH1 0xA0 SHL SUB SWAP1 SWAP3 AND SWAP3 DUP2 ISZERO PUSH2 0x8FC MUL SWAP3 SWAP1 DUP2 DUP2 DUP2 DUP6 DUP9 DUP9 CALL SWAP4 POP POP POP POP ISZERO DUP1 ISZERO PUSH2 0xBBB JUMPI RETURNDATASIZE PUSH1 0x0 DUP1 RETURNDATACOPY RETURNDATASIZE PUSH1 0x0 REVERT JUMPDEST POP PUSH1 0x40 MLOAD PUSH1 0x1 PUSH1 0x1 PUSH1 0xA0 SHL SUB DUP12 AND SWAP1 DUP3 ISZERO PUSH2 0x8FC MUL SWAP1 DUP4 SWAP1 PUSH1 0x0 DUP2 DUP2 DUP2 DUP6 DUP9 DUP9 CALL SWAP4 POP POP POP POP ISZERO DUP1 ISZERO PUSH2 0xBF2 JUMPI RETURNDATASIZE PUSH1 0x0 DUP1 RETURNDATACOPY RETURNDATASIZE PUSH1 0x0 REVERT JUMPDEST POP PUSH1 0x3 SLOAD PUSH2 0xC00 SWAP1 DUP3 PUSH2 0x14BA JUMP JUMPDEST CALLVALUE GT ISZERO PUSH2 0xC4E JUMPI PUSH1 0x3 SLOAD CALLER SWAP1 PUSH2 0x8FC SWAP1 PUSH2 0xC1A SWAP1 DUP5 PUSH2 0x14BA JUMP JUMPDEST PUSH2 0xC24 SWAP1 CALLVALUE PUSH2 0x14CD JUMP JUMPDEST PUSH1 0x40 MLOAD DUP2 ISZERO SWAP1 SWAP3 MUL SWAP2 PUSH1 0x0 DUP2 DUP2 DUP2 DUP6 DUP9 DUP9 CALL SWAP4 POP POP POP POP ISZERO DUP1 ISZERO PUSH2 0xC4C JUMPI RETURNDATASIZE PUSH1 0x0 DUP1 RETURNDATACOPY RETURNDATASIZE PUSH1 0x0 REVERT JUMPDEST POP JUMPDEST PUSH2 0xC59 DUP11 CALLER DUP10 PUSH2 0xE78 JUMP JUMPDEST DUP8 DUP6 SSTORE PUSH1 0x1 DUP6 ADD PUSH2 0xC6A DUP11 DUP3 PUSH2 0x13E4 JUMP JUMPDEST POP DUP8 CALLER PUSH1 0x1 PUSH1 0x1 PUSH1 0xA0 SHL SUB AND DUP12 PUSH1 0x1 PUSH1 0x1 PUSH1 0xA0 SHL SUB AND PUSH32 0x7E8EB2C1AF97A3780B1A02BEF48AA99BD50F08BAE7654AABCBAB9F3BC4EE0F7B DUP13 TIMESTAMP PUSH1 0x40 MLOAD PUSH2 0xCB1 SWAP3 SWAP2 SWAP1 PUSH2 0x1521 JUMP JUMPDEST PUSH1 0x40 MLOAD DUP1 SWAP2 SUB SWAP1 LOG4 POP POP POP POP POP POP PUSH2 0xCC8 PUSH1 0x1 DUP1 SSTORE JUMP JUMPDEST POP POP POP POP JUMP JUMPDEST CALLER PUSH1 0x0 SWAP1 DUP2 MSTORE PUSH1 0x4 PUSH1 0x20 SWAP1 DUP2 MSTORE PUSH1 0x40 DUP1 DUP4 KECCAK256 PUSH1 0x1 PUSH1 0x1 PUSH1 0xA0 SHL SUB DUP7 AND DUP5 MSTORE SWAP1 SWAP2 MSTORE DUP2 KECCAK256 DUP1 SLOAD SWAP1 SWAP2 SUB PUSH2 0xD13 JUMPI PUSH1 0x40 MLOAD PUSH4 0x1A00354F PUSH1 0xE0 SHL DUP2 MSTORE PUSH1 0x4 ADD PUSH1 0x40 MLOAD DUP1 SWAP2 SUB SWAP1 REVERT JUMPDEST DUP1 SLOAD TIMESTAMP LT DUP1 ISZERO PUSH2 0xDAF JUMPI POP PUSH1 0x40 MLOAD PUSH4 0x70A08231 PUSH1 0xE0 SHL DUP2 MSTORE PUSH1 0x1 PUSH1 0x1 PUSH1 0xA0 SHL SUB DUP5 DUP2 AND PUSH1 0x4 DUP4 ADD MSTORE PUSH1 0x0 SWAP2 PUSH32 0x0 SWAP1 SWAP2 AND SWAP1 PUSH4 0x70A08231 SWAP1 PUSH1 0x24 ADD PUSH1 0x20 PUSH1 0x40 MLOAD DUP1 DUP4 SUB DUP2 DUP7 GAS STATICCALL ISZERO DUP1 ISZERO PUSH2 0xD89 JUMPI RETURNDATASIZE PUSH1 0x0 DUP1 RETURNDATACOPY RETURNDATASIZE PUSH1 0x0 REVERT JUMPDEST POP POP POP POP PUSH1 0x40 MLOAD RETURNDATASIZE PUSH1 0x1F NOT PUSH1 0x1F DUP3 ADD AND DUP3 ADD DUP1 PUSH1 0x40 MSTORE POP DUP2 ADD SWAP1 PUSH2 0xDAD SWAP2 SWAP1 PUSH2 0x1341 JUMP JUMPDEST GT JUMPDEST ISZERO PUSH2 0xDCD JUMPI PUSH1 0x40 MLOAD PUSH4 0xDFF27587 PUSH1 0xE0 SHL DUP2 MSTORE PUSH1 0x4 ADD PUSH1 0x40 MLOAD DUP1 SWAP2 SUB SWAP1 REVERT JUMPDEST PUSH2 0xDD8 DUP4 CALLER DUP5 PUSH2 0xE78 JUMP JUMPDEST PUSH1 0x40 DUP1 MLOAD PUSH1 0x20 DUP2 ADD SWAP1 SWAP2 MSTORE PUSH1 0x0 DUP2 MSTORE PUSH1 0x1 DUP3 ADD SWAP1 PUSH2 0xDF6 SWAP1 DUP3 PUSH2 0x13E4 JUMP JUMPDEST POP PUSH1 0x0 DUP1 DUP3 SSTORE PUSH1 0x40 MLOAD CALLER SWAP2 PUSH1 0x1 PUSH1 0x1 PUSH1 0xA0 SHL SUB DUP7 AND SWAP2 PUSH32 0xA36E542773A934D56325C3A8D3DF287CC118D14DC700C17F406523F1F6447CA5 SWAP2 SWAP1 LOG3 POP POP POP JUMP JUMPDEST PUSH2 0xE3D PUSH2 0xF81 JUMP JUMPDEST PUSH1 0x1 PUSH1 0x1 PUSH1 0xA0 SHL SUB DUP2 AND PUSH2 0xE6C JUMPI PUSH1 0x40 MLOAD PUSH4 0x1E4FBDF7 PUSH1 0xE0 SHL DUP2 MSTORE PUSH1 0x0 PUSH1 0x4 DUP3 ADD MSTORE PUSH1 0x24 ADD JUMPDEST PUSH1 0x40 MLOAD DUP1 SWAP2 SUB SWAP1 REVERT JUMPDEST PUSH2 0xE75 DUP2 PUSH2 0xFD8 JUMP JUMPDEST POP JUMP JUMPDEST DUP1 PUSH1 0x64 DUP2 PUSH1 0xFF AND GT ISZERO PUSH2 0xE9E JUMPI PUSH1 0x40 MLOAD PUSH4 0x3EA0009 PUSH1 0xE6 SHL DUP2 MSTORE PUSH1 0x4 ADD PUSH1 0x40 MLOAD DUP1 SWAP2 SUB SWAP1 REVERT JUMPDEST PUSH1 0x1 PUSH1 0x1 PUSH1 0xA0 SHL SUB DUP1 DUP6 AND PUSH1 0x0 SWAP1 DUP2 MSTORE PUSH1 0x6 PUSH1 0x20 SWAP1 DUP2 MSTORE PUSH1 0x40 SWAP2 DUP3 SWAP1 KECCAK256 DUP3 MLOAD DUP1 DUP5 ADD SWAP1 SWAP4 MSTORE SWAP3 DUP7 AND DUP3 MSTORE PUSH1 0xFF DUP6 AND SWAP1 DUP3 ADD MSTORE PUSH1 0xA DUP1 DUP4 ADD SLOAD DUP4 SWAP2 DUP2 LT PUSH2 0xEE6 JUMPI PUSH2 0xEE6 PUSH2 0x1543 JUMP JUMPDEST DUP3 MLOAD SWAP2 ADD DUP1 SLOAD PUSH1 0x20 SWAP1 SWAP4 ADD MLOAD PUSH1 0xFF AND PUSH1 0x1 PUSH1 0xA0 SHL MUL PUSH1 0x1 PUSH1 0x1 PUSH1 0xA8 SHL SUB NOT SWAP1 SWAP4 AND PUSH1 0x1 PUSH1 0x1 PUSH1 0xA0 SHL SUB SWAP1 SWAP3 AND SWAP2 SWAP1 SWAP2 OR SWAP2 SWAP1 SWAP2 OR SWAP1 SSTORE PUSH1 0xA DUP2 DUP2 ADD SLOAD PUSH2 0xF2D SWAP1 PUSH1 0x1 PUSH2 0x14BA JUMP JUMPDEST PUSH2 0xF37 SWAP2 SWAP1 PUSH2 0x1559 JUMP JUMPDEST PUSH1 0xA DUP3 ADD SSTORE PUSH1 0x40 MLOAD PUSH1 0xFF DUP5 AND SWAP1 PUSH1 0x1 PUSH1 0x1 PUSH1 0xA0 SHL SUB DUP1 DUP8 AND SWAP2 SWAP1 DUP9 AND SWAP1 PUSH32 0x44AEDCFA4237CFB29D0F6850597741CB4F40C25E45B4265264100C7C11566757 SWAP1 PUSH1 0x0 SWAP1 LOG4 POP POP POP POP POP JUMP JUMPDEST PUSH1 0x0 SLOAD PUSH1 0x1 PUSH1 0x1 PUSH1 0xA0 SHL SUB AND CALLER EQ PUSH2 0x9E5 JUMPI PUSH1 0x40 MLOAD PUSH4 0x118CDAA7 PUSH1 0xE0 SHL DUP2 MSTORE CALLER PUSH1 0x4 DUP3 ADD MSTORE PUSH1 0x24 ADD PUSH2 0xE63 JUMP JUMPDEST PUSH1 0x2 PUSH1 0x1 SLOAD SUB PUSH2 0xFD1 JUMPI PUSH1 0x40 MLOAD PUSH4 0x3EE5AEB5 PUSH1 0xE0 SHL DUP2 MSTORE PUSH1 0x4 ADD PUSH1 0x40 MLOAD DUP1 SWAP2 SUB SWAP1 REVERT JUMPDEST PUSH1 0x2 PUSH1 0x1 SSTORE JUMP JUMPDEST PUSH1 0x0 DUP1 SLOAD PUSH1 0x1 PUSH1 0x1 PUSH1 0xA0 SHL SUB DUP4 DUP2 AND PUSH1 0x1 PUSH1 0x1 PUSH1 0xA0 SHL SUB NOT DUP4 AND DUP2 OR DUP5 SSTORE PUSH1 0x40 MLOAD SWAP2 SWAP1 SWAP3 AND SWAP3 DUP4 SWAP2 PUSH32 0x8BE0079C531659141344CD1FD0A4F28419497F9722A3DAAFE3B4186F6B6457E0 SWAP2 SWAP1 LOG3 POP POP JUMP JUMPDEST PUSH1 0x0 DUP2 DUP4 GT PUSH2 0x1037 JUMPI DUP2 PUSH2 0x1039 JUMP JUMPDEST DUP3 JUMPDEST SWAP1 POP JUMPDEST SWAP3 SWAP2 POP POP JUMP JUMPDEST DUP1 CALLDATALOAD PUSH1 0x1 PUSH1 0x1 PUSH1 0xA0 SHL SUB DUP2 AND DUP2 EQ PUSH2 0x1059 JUMPI PUSH1 0x0 DUP1 REVERT JUMPDEST SWAP2 SWAP1 POP JUMP JUMPDEST PUSH1 0x0 PUSH1 0x20 DUP3 DUP5 SUB SLT ISZERO PUSH2 0x1070 JUMPI PUSH1 0x0 DUP1 REVERT JUMPDEST PUSH2 0x1039 DUP3 PUSH2 0x1042 JUMP JUMPDEST PUSH1 0x20 DUP1 DUP3 MSTORE DUP3 MLOAD DUP3 DUP3 ADD DUP2 SWAP1 MSTORE PUSH1 0x0 SWAP2 SWAP1 DUP5 DUP3 ADD SWAP1 PUSH1 0x40 DUP6 ADD SWAP1 DUP5 JUMPDEST DUP2 DUP2 LT ISZERO PUSH2 0x10BB JUMPI DUP4 MLOAD MLOAD PUSH1 0x1 PUSH1 0x1 PUSH1 0xA0 SHL SUB AND DUP4 MSTORE SWAP3 DUP5 ADD SWAP3 SWAP2 DUP5 ADD SWAP2 PUSH1 0x1 ADD PUSH2 0x1095 JUMP JUMPDEST POP SWAP1 SWAP7 SWAP6 POP POP POP POP POP POP JUMP JUMPDEST PUSH1 0x0 DUP1 PUSH1 0x40 DUP4 DUP6 SUB SLT ISZERO PUSH2 0x10DA JUMPI PUSH1 0x0 DUP1 REVERT JUMPDEST PUSH2 0x10E3 DUP4 PUSH2 0x1042 JUMP JUMPDEST SWAP5 PUSH1 0x20 SWAP4 SWAP1 SWAP4 ADD CALLDATALOAD SWAP4 POP POP POP JUMP JUMPDEST DUP1 CALLDATALOAD PUSH1 0xFF DUP2 AND DUP2 EQ PUSH2 0x1059 JUMPI PUSH1 0x0 DUP1 REVERT JUMPDEST PUSH1 0x0 DUP1 PUSH1 0x40 DUP4 DUP6 SUB SLT ISZERO PUSH2 0x1115 JUMPI PUSH1 0x0 DUP1 REVERT JUMPDEST PUSH2 0x111E DUP4 PUSH2 0x1042 JUMP JUMPDEST SWAP2 POP PUSH2 0x112C PUSH1 0x20 DUP5 ADD PUSH2 0x10F1 JUMP JUMPDEST SWAP1 POP SWAP3 POP SWAP3 SWAP1 POP JUMP JUMPDEST PUSH1 0x0 DUP1 PUSH1 0x40 DUP4 DUP6 SUB SLT ISZERO PUSH2 0x1148 JUMPI PUSH1 0x0 DUP1 REVERT JUMPDEST PUSH2 0x1151 DUP4 PUSH2 0x1042 JUMP JUMPDEST SWAP2 POP PUSH2 0x112C PUSH1 0x20 DUP5 ADD PUSH2 0x1042 JUMP JUMPDEST PUSH1 0x0 DUP2 MLOAD DUP1 DUP5 MSTORE PUSH1 0x0 JUMPDEST DUP2 DUP2 LT ISZERO PUSH2 0x1185 JUMPI PUSH1 0x20 DUP2 DUP6 ADD DUP2 ADD MLOAD DUP7 DUP4 ADD DUP3 ADD MSTORE ADD PUSH2 0x1169 JUMP JUMPDEST POP PUSH1 0x0 PUSH1 0x20 DUP3 DUP7 ADD ADD MSTORE PUSH1 0x20 PUSH1 0x1F NOT PUSH1 0x1F DUP4 ADD AND DUP6 ADD ADD SWAP2 POP POP SWAP3 SWAP2 POP POP JUMP JUMPDEST DUP3 DUP2 MSTORE PUSH1 0x40 PUSH1 0x20 DUP3 ADD MSTORE PUSH1 0x0 PUSH2 0x11BE PUSH1 0x40 DUP4 ADD DUP5 PUSH2 0x115F JUMP JUMPDEST SWAP5 SWAP4 POP POP POP POP JUMP JUMPDEST PUSH1 0x0 PUSH1 0x20 DUP3 DUP5 SUB SLT ISZERO PUSH2 0x11D8 JUMPI PUSH1 0x0 DUP1 REVERT JUMPDEST POP CALLDATALOAD SWAP2 SWAP1 POP JUMP JUMPDEST PUSH4 0x4E487B71 PUSH1 0xE0 SHL PUSH1 0x0 MSTORE PUSH1 0x41 PUSH1 0x4 MSTORE PUSH1 0x24 PUSH1 0x0 REVERT JUMPDEST PUSH1 0x0 DUP3 PUSH1 0x1F DUP4 ADD SLT PUSH2 0x1206 JUMPI PUSH1 0x0 DUP1 REVERT JUMPDEST DUP2 CALLDATALOAD PUSH8 0xFFFFFFFFFFFFFFFF DUP1 DUP3 GT ISZERO PUSH2 0x1221 JUMPI PUSH2 0x1221 PUSH2 0x11DF JUMP JUMPDEST PUSH1 0x40 MLOAD PUSH1 0x1F DUP4 ADD PUSH1 0x1F NOT SWAP1 DUP2 AND PUSH1 0x3F ADD AND DUP2 ADD SWAP1 DUP3 DUP3 GT DUP2 DUP4 LT OR ISZERO PUSH2 0x1249 JUMPI PUSH2 0x1249 PUSH2 0x11DF JUMP JUMPDEST DUP2 PUSH1 0x40 MSTORE DUP4 DUP2 MSTORE DUP7 PUSH1 0x20 DUP6 DUP9 ADD ADD GT ISZERO PUSH2 0x1262 JUMPI PUSH1 0x0 DUP1 REVERT JUMPDEST DUP4 PUSH1 0x20 DUP8 ADD PUSH1 0x20 DUP4 ADD CALLDATACOPY PUSH1 0x0 PUSH1 0x20 DUP6 DUP4 ADD ADD MSTORE DUP1 SWAP5 POP POP POP POP POP SWAP3 SWAP2 POP POP JUMP JUMPDEST PUSH1 0x0 DUP1 PUSH1 0x0 PUSH1 0x60 DUP5 DUP7 SUB SLT ISZERO PUSH2 0x1297 JUMPI PUSH1 0x0 DUP1 REVERT JUMPDEST PUSH2 0x12A0 DUP5 PUSH2 0x1042 JUMP JUMPDEST SWAP3 POP PUSH1 0x20 DUP5 ADD CALLDATALOAD PUSH8 0xFFFFFFFFFFFFFFFF DUP2 GT ISZERO PUSH2 0x12BC JUMPI PUSH1 0x0 DUP1 REVERT JUMPDEST PUSH2 0x12C8 DUP7 DUP3 DUP8 ADD PUSH2 0x11F5 JUMP JUMPDEST SWAP3 POP POP PUSH1 0x40 DUP5 ADD CALLDATALOAD SWAP1 POP SWAP3 POP SWAP3 POP SWAP3 JUMP JUMPDEST PUSH1 0x0 DUP1 PUSH1 0x0 DUP1 PUSH1 0x80 DUP6 DUP8 SUB SLT ISZERO PUSH2 0x12EF JUMPI PUSH1 0x0 DUP1 REVERT JUMPDEST PUSH2 0x12F8 DUP6 PUSH2 0x1042 JUMP JUMPDEST SWAP4 POP PUSH1 0x20 DUP6 ADD CALLDATALOAD PUSH8 0xFFFFFFFFFFFFFFFF DUP2 GT ISZERO PUSH2 0x1314 JUMPI PUSH1 0x0 DUP1 REVERT JUMPDEST PUSH2 0x1320 DUP8 DUP3 DUP9 ADD PUSH2 0x11F5 JUMP JUMPDEST SWAP4 POP POP PUSH1 0x40 DUP6 ADD CALLDATALOAD SWAP2 POP PUSH2 0x1336 PUSH1 0x60 DUP7 ADD PUSH2 0x10F1 JUMP JUMPDEST SWAP1 POP SWAP3 SWAP6 SWAP2 SWAP5 POP SWAP3 POP JUMP JUMPDEST PUSH1 0x0 PUSH1 0x20 DUP3 DUP5 SUB SLT ISZERO PUSH2 0x1353 JUMPI PUSH1 0x0 DUP1 REVERT JUMPDEST POP MLOAD SWAP2 SWAP1 POP JUMP JUMPDEST PUSH1 0x1 DUP2 DUP2 SHR SWAP1 DUP3 AND DUP1 PUSH2 0x136E JUMPI PUSH1 0x7F DUP3 AND SWAP2 POP JUMPDEST PUSH1 0x20 DUP3 LT DUP2 SUB PUSH2 0x138E JUMPI PUSH4 0x4E487B71 PUSH1 0xE0 SHL PUSH1 0x0 MSTORE PUSH1 0x22 PUSH1 0x4 MSTORE PUSH1 0x24 PUSH1 0x0 REVERT JUMPDEST POP SWAP2 SWAP1 POP JUMP JUMPDEST PUSH1 0x1F DUP3 GT ISZERO PUSH2 0x9CE JUMPI PUSH1 0x0 DUP2 PUSH1 0x0 MSTORE PUSH1 0x20 PUSH1 0x0 KECCAK256 PUSH1 0x1F DUP6 ADD PUSH1 0x5 SHR DUP2 ADD PUSH1 0x20 DUP7 LT ISZERO PUSH2 0x13BD JUMPI POP DUP1 JUMPDEST PUSH1 0x1F DUP6 ADD PUSH1 0x5 SHR DUP3 ADD SWAP2 POP JUMPDEST DUP2 DUP2 LT ISZERO PUSH2 0x13DC JUMPI DUP3 DUP2 SSTORE PUSH1 0x1 ADD PUSH2 0x13C9 JUMP JUMPDEST POP POP POP POP POP POP JUMP JUMPDEST DUP2 MLOAD PUSH8 0xFFFFFFFFFFFFFFFF DUP2 GT ISZERO PUSH2 0x13FE JUMPI PUSH2 0x13FE PUSH2 0x11DF JUMP JUMPDEST PUSH2 0x1412 DUP2 PUSH2 0x140C DUP5 SLOAD PUSH2 0x135A JUMP JUMPDEST DUP5 PUSH2 0x1394 JUMP JUMPDEST PUSH1 0x20 DUP1 PUSH1 0x1F DUP4 GT PUSH1 0x1 DUP2 EQ PUSH2 0x1447 JUMPI PUSH1 0x0 DUP5 ISZERO PUSH2 0x142F JUMPI POP DUP6 DUP4 ADD MLOAD JUMPDEST PUSH1 0x0 NOT PUSH1 0x3 DUP7 SWAP1 SHL SHR NOT AND PUSH1 0x1 DUP6 SWAP1 SHL OR DUP6 SSTORE PUSH2 0x13DC JUMP JUMPDEST PUSH1 0x0 DUP6 DUP2 MSTORE PUSH1 0x20 DUP2 KECCAK256 PUSH1 0x1F NOT DUP7 AND SWAP2 JUMPDEST DUP3 DUP2 LT ISZERO PUSH2 0x1476 JUMPI DUP9 DUP7 ADD MLOAD DUP3 SSTORE SWAP5 DUP5 ADD SWAP5 PUSH1 0x1 SWAP1 SWAP2 ADD SWAP1 DUP5 ADD PUSH2 0x1457 JUMP JUMPDEST POP DUP6 DUP3 LT ISZERO PUSH2 0x1494 JUMPI DUP8 DUP6 ADD MLOAD PUSH1 0x0 NOT PUSH1 0x3 DUP9 SWAP1 SHL PUSH1 0xF8 AND SHR NOT AND DUP2 SSTORE JUMPDEST POP POP POP POP POP PUSH1 0x1 SWAP1 DUP2 SHL ADD SWAP1 SSTORE POP JUMP JUMPDEST PUSH4 0x4E487B71 PUSH1 0xE0 SHL PUSH1 0x0 MSTORE PUSH1 0x11 PUSH1 0x4 MSTORE PUSH1 0x24 PUSH1 0x0 REVERT JUMPDEST DUP1 DUP3 ADD DUP1 DUP3 GT ISZERO PUSH2 0x103C JUMPI PUSH2 0x103C PUSH2 0x14A4 JUMP JUMPDEST DUP2 DUP2 SUB DUP2 DUP2 GT ISZERO PUSH2 0x103C JUMPI PUSH2 0x103C PUSH2 0x14A4 JUMP JUMPDEST DUP1 DUP3 MUL DUP2 ISZERO DUP3 DUP3 DIV DUP5 EQ OR PUSH2 0x103C JUMPI PUSH2 0x103C PUSH2 0x14A4 JUMP JUMPDEST PUSH4 0x4E487B71 PUSH1 0xE0 SHL PUSH1 0x0 MSTORE PUSH1 0x12 PUSH1 0x4 MSTORE PUSH1 0x24 PUSH1 0x0 REVERT JUMPDEST PUSH1 0x0 DUP3 PUSH2 0x151C JUMPI PUSH2 0x151C PUSH2 0x14F7 JUMP JUMPDEST POP DIV SWAP1 JUMP JUMPDEST PUSH1 0x40 DUP2 MSTORE PUSH1 0x0 PUSH2 0x1534 PUSH1 0x40 DUP4 ADD DUP6 PUSH2 0x115F JUMP JUMPDEST SWAP1 POP DUP3 PUSH1 0x20 DUP4 ADD MSTORE SWAP4 SWAP3 POP POP POP JUMP JUMPDEST PUSH4 0x4E487B71 PUSH1 0xE0 SHL PUSH1 0x0 MSTORE PUSH1 0x32 PUSH1 0x4 MSTORE PUSH1 0x24 PUSH1 0x0 REVERT JUMPDEST PUSH1 0x0 DUP3 PUSH2 0x1568 JUMPI PUSH2 0x1568 PUSH2 0x14F7 JUMP JUMPDEST POP MOD SWAP1 JUMP INVALID LOG2 PUSH5 0x6970667358 0x22 SLT KECCAK256 SAR BLOBHASH 0x26 PUSH16 0x759DD1AB96A49E295512CA99B0276138 0xB5 DUP7 0xE5 SWAP8 EXTCODEHASH 0xEC 0x2B 0xBF EXTCODEHASH 0xA8 SWAP16 0x24 PUSH5 0x736F6C6343 STOP ADDMOD XOR STOP CALLER LOG2 PUSH5 0x6970667358 0x22 SLT KECCAK256 0xA7 PUSH17 0x4A6EB85E251E9451A18738E65C1948A0A0 PUSH30 0xDB5BE15AEF7BD217AE59D25464736F6C6343000818003300000000000000 "},"methodIdentifiers":{"collectorList(address)":"252e425f","collectors(uint256)":"b3e224b6","createCollector(address,uint256,uint256)":"18ca0931","creatorList(address)":"115b1570","getReputationScore(address,address)":"736373af","handleCollectorCreator(address,bool)":"fb7cba3d","handleCollectorValidity(address,bool)":"e3a82eb8","handleReputationProvider(address,bool)":"19b45725","listCollectorsByValidation(bool)":"e16cd55b","owner()":"8da5cb5b","renounceOwnership()":"715018a6","reputationProviders(address)":"52bf2cca","reputationRequest(address,address)":"9c439d00","reputationScores(address,address)":"e37b09d5","requestReputation(address,address)":"afa60a00","storeReputationScore(address,address,uint256)":"6f2701f1","transferOwnership(address)":"f2fde38b"}}}}}