{
  "_format": "hh-sol-artifact-1",
  "contractName": "Collector",
  "sourceName": "contracts/Collector.sol",
  "abi": [
    {
      "inputs": [
        {
          "internalType": "string",
          "name": "name",
          "type": "string"
        },
        {
          "internalType": "string",
          "name": "symbol",
          "type": "string"
        },
        {
          "internalType": "string",
          "name": "tokenURI_",
          "type": "string"
        },
        {
          "internalType": "address",
          "name": "initialOwner",
          "type": "address"
        }
      ],
      "stateMutability": "nonpayable",
      "type": "constructor"
    },
    {
      "inputs": [
        {
          "internalType": "address",
          "name": "sender",
          "type": "address"
        },
        {
          "internalType": "uint256",
          "name": "tokenId",
          "type": "uint256"
        },
        {
          "internalType": "address",
          "name": "owner",
          "type": "address"
        }
      ],
      "name": "ERC721IncorrectOwner",
      "type": "error"
    },
    {
      "inputs": [
        {
          "internalType": "address",
          "name": "operator",
          "type": "address"
        },
        {
          "internalType": "uint256",
          "name": "tokenId",
          "type": "uint256"
        }
      ],
      "name": "ERC721InsufficientApproval",
      "type": "error"
    },
    {
      "inputs": [
        {
          "internalType": "address",
          "name": "approver",
          "type": "address"
        }
      ],
      "name": "ERC721InvalidApprover",
      "type": "error"
    },
    {
      "inputs": [
        {
          "internalType": "address",
          "name": "operator",
          "type": "address"
        }
      ],
      "name": "ERC721InvalidOperator",
      "type": "error"
    },
    {
      "inputs": [
        {
          "internalType": "address",
          "name": "owner",
          "type": "address"
        }
      ],
      "name": "ERC721InvalidOwner",
      "type": "error"
    },
    {
      "inputs": [
        {
          "internalType": "address",
          "name": "receiver",
          "type": "address"
        }
      ],
      "name": "ERC721InvalidReceiver",
      "type": "error"
    },
    {
      "inputs": [
        {
          "internalType": "address",
          "name": "sender",
          "type": "address"
        }
      ],
      "name": "ERC721InvalidSender",
      "type": "error"
    },
    {
      "inputs": [
        {
          "internalType": "uint256",
          "name": "tokenId",
          "type": "uint256"
        }
      ],
      "name": "ERC721NonexistentToken",
      "type": "error"
    },
    {
      "inputs": [
        {
          "internalType": "address",
          "name": "owner",
          "type": "address"
        }
      ],
      "name": "OwnableInvalidOwner",
      "type": "error"
    },
    {
      "inputs": [
        {
          "internalType": "address",
          "name": "account",
          "type": "address"
        }
      ],
      "name": "OwnableUnauthorizedAccount",
      "type": "error"
    },
    {
      "anonymous": false,
      "inputs": [
        {
          "indexed": true,
          "internalType": "address",
          "name": "owner",
          "type": "address"
        },
        {
          "indexed": true,
          "internalType": "address",
          "name": "approved",
          "type": "address"
        },
        {
          "indexed": true,
          "internalType": "uint256",
          "name": "tokenId",
          "type": "uint256"
        }
      ],
      "name": "Approval",
      "type": "event"
    },
    {
      "anonymous": false,
      "inputs": [
        {
          "indexed": true,
          "internalType": "address",
          "name": "owner",
          "type": "address"
        },
        {
          "indexed": true,
          "internalType": "address",
          "name": "operator",
          "type": "address"
        },
        {
          "indexed": false,
          "internalType": "bool",
          "name": "approved",
          "type": "bool"
        }
      ],
      "name": "ApprovalForAll",
      "type": "event"
    },
    {
      "anonymous": false,
      "inputs": [
        {
          "indexed": true,
          "internalType": "address",
          "name": "previousOwner",
          "type": "address"
        },
        {
          "indexed": true,
          "internalType": "address",
          "name": "newOwner",
          "type": "address"
        }
      ],
      "name": "OwnershipTransferred",
      "type": "event"
    },
    {
      "anonymous": false,
      "inputs": [
        {
          "indexed": true,
          "internalType": "address",
          "name": "from",
          "type": "address"
        },
        {
          "indexed": true,
          "internalType": "address",
          "name": "to",
          "type": "address"
        },
        {
          "indexed": true,
          "internalType": "uint256",
          "name": "tokenId",
          "type": "uint256"
        }
      ],
      "name": "Transfer",
      "type": "event"
    },
    {
      "inputs": [
        {
          "internalType": "address",
          "name": "to",
          "type": "address"
        },
        {
          "internalType": "uint256",
          "name": "tokenId",
          "type": "uint256"
        }
      ],
      "name": "approve",
      "outputs": [],
      "stateMutability": "nonpayable",
      "type": "function"
    },
    {
      "inputs": [
        {
          "internalType": "address",
          "name": "owner",
          "type": "address"
        }
      ],
      "name": "balanceOf",
      "outputs": [
        {
          "internalType": "uint256",
          "name": "",
          "type": "uint256"
        }
      ],
      "stateMutability": "view",
      "type": "function"
    },
    {
      "inputs": [
        {
          "internalType": "uint256",
          "name": "tokenId",
          "type": "uint256"
        }
      ],
      "name": "getApproved",
      "outputs": [
        {
          "internalType": "address",
          "name": "",
          "type": "address"
        }
      ],
      "stateMutability": "view",
      "type": "function"
    },
    {
      "inputs": [
        {
          "internalType": "address",
          "name": "owner",
          "type": "address"
        },
        {
          "internalType": "address",
          "name": "operator",
          "type": "address"
        }
      ],
      "name": "isApprovedForAll",
      "outputs": [
        {
          "internalType": "bool",
          "name": "",
          "type": "bool"
        }
      ],
      "stateMutability": "view",
      "type": "function"
    },
    {
      "inputs": [],
      "name": "name",
      "outputs": [
        {
          "internalType": "string",
          "name": "",
          "type": "string"
        }
      ],
      "stateMutability": "view",
      "type": "function"
    },
    {
      "inputs": [],
      "name": "owner",
      "outputs": [
        {
          "internalType": "address",
          "name": "",
          "type": "address"
        }
      ],
      "stateMutability": "view",
      "type": "function"
    },
    {
      "inputs": [
        {
          "internalType": "uint256",
          "name": "tokenId",
          "type": "uint256"
        }
      ],
      "name": "ownerOf",
      "outputs": [
        {
          "internalType": "address",
          "name": "",
          "type": "address"
        }
      ],
      "stateMutability": "view",
      "type": "function"
    },
    {
      "inputs": [],
      "name": "renounceOwnership",
      "outputs": [],
      "stateMutability": "nonpayable",
      "type": "function"
    },
    {
      "inputs": [
        {
          "internalType": "address",
          "name": "to",
          "type": "address"
        }
      ],
      "name": "safeMint",
      "outputs": [],
      "stateMutability": "nonpayable",
      "type": "function"
    },
    {
      "inputs": [
        {
          "internalType": "address",
          "name": "from",
          "type": "address"
        },
        {
          "internalType": "address",
          "name": "to",
          "type": "address"
        },
        {
          "internalType": "uint256",
          "name": "tokenId",
          "type": "uint256"
        }
      ],
      "name": "safeTransferFrom",
      "outputs": [],
      "stateMutability": "nonpayable",
      "type": "function"
    },
    {
      "inputs": [
        {
          "internalType": "address",
          "name": "from",
          "type": "address"
        },
        {
          "internalType": "address",
          "name": "to",
          "type": "address"
        },
        {
          "internalType": "uint256",
          "name": "tokenId",
          "type": "uint256"
        },
        {
          "internalType": "bytes",
          "name": "data",
          "type": "bytes"
        }
      ],
      "name": "safeTransferFrom",
      "outputs": [],
      "stateMutability": "nonpayable",
      "type": "function"
    },
    {
      "inputs": [
        {
          "internalType": "address",
          "name": "operator",
          "type": "address"
        },
        {
          "internalType": "bool",
          "name": "approved",
          "type": "bool"
        }
      ],
      "name": "setApprovalForAll",
      "outputs": [],
      "stateMutability": "nonpayable",
      "type": "function"
    },
    {
      "inputs": [
        {
          "internalType": "bytes4",
          "name": "interfaceId",
          "type": "bytes4"
        }
      ],
      "name": "supportsInterface",
      "outputs": [
        {
          "internalType": "bool",
          "name": "",
          "type": "bool"
        }
      ],
      "stateMutability": "view",
      "type": "function"
    },
    {
      "inputs": [],
      "name": "symbol",
      "outputs": [
        {
          "internalType": "string",
          "name": "",
          "type": "string"
        }
      ],
      "stateMutability": "view",
      "type": "function"
    },
    {
      "inputs": [
        {
          "internalType": "uint256",
          "name": "tokenId",
          "type": "uint256"
        }
      ],
      "name": "tokenURI",
      "outputs": [
        {
          "internalType": "string",
          "name": "",
          "type": "string"
        }
      ],
      "stateMutability": "view",
      "type": "function"
    },
    {
      "inputs": [
        {
          "internalType": "address",
          "name": "from",
          "type": "address"
        },
        {
          "internalType": "address",
          "name": "to",
          "type": "address"
        },
        {
          "internalType": "uint256",
          "name": "tokenId",
          "type": "uint256"
        }
      ],
      "name": "transferFrom",
      "outputs": [],
      "stateMutability": "nonpayable",
      "type": "function"
    },
    {
      "inputs": [
        {
          "internalType": "address",
          "name": "newOwner",
          "type": "address"
        }
      ],
      "name": "transferOwnership",
      "outputs": [],
      "stateMutability": "nonpayable",
      "type": "function"
    }
  ],
  "bytecode": "0x60806040523480156200001157600080fd5b5060405162001375380380620013758339810160408190526200003491620001c5565b808484600062000045838262000309565b50600162000054828262000309565b5050506001600160a01b0381166200008657604051631e4fbdf760e01b81526000600482015260240160405180910390fd5b6200009181620000ab565b506007620000a0838262000309565b5050505050620003d5565b600680546001600160a01b038381166001600160a01b0319831681179093556040519116919082907f8be0079c531659141344cd1fd0a4f28419497f9722a3daafe3b4186f6b6457e090600090a35050565b634e487b7160e01b600052604160045260246000fd5b600082601f8301126200012557600080fd5b81516001600160401b0380821115620001425762000142620000fd565b604051601f8301601f19908116603f011681019082821181831017156200016d576200016d620000fd565b81604052838152602092508660208588010111156200018b57600080fd5b600091505b83821015620001af578582018301518183018401529082019062000190565b6000602085830101528094505050505092915050565b60008060008060808587031215620001dc57600080fd5b84516001600160401b0380821115620001f457600080fd5b620002028883890162000113565b955060208701519150808211156200021957600080fd5b620002278883890162000113565b945060408701519150808211156200023e57600080fd5b506200024d8782880162000113565b606087015190935090506001600160a01b03811681146200026d57600080fd5b939692955090935050565b600181811c908216806200028d57607f821691505b602082108103620002ae57634e487b7160e01b600052602260045260246000fd5b50919050565b601f82111562000304576000816000526020600020601f850160051c81016020861015620002df5750805b601f850160051c820191505b818110156200030057828155600101620002eb565b5050505b505050565b81516001600160401b03811115620003255762000325620000fd565b6200033d8162000336845462000278565b84620002b4565b602080601f8311600181146200037557600084156200035c5750858301515b600019600386901b1c1916600185901b17855562000300565b600085815260208120601f198616915b82811015620003a65788860151825594840194600190910190840162000385565b5085821015620003c55787850151600019600388901b60f8161c191681555b5050505050600190811b01905550565b610f9080620003e56000396000f3fe608060405234801561001057600080fd5b506004361061010b5760003560e01c806370a08231116100a2578063a22cb46511610071578063a22cb4651461021b578063b88d4fde1461022e578063c87b56dd14610241578063e985e9c514610254578063f2fde38b1461026757600080fd5b806370a08231146101d9578063715018a6146101fa5780638da5cb5b1461020257806395d89b411461021357600080fd5b806323b872dd116100de57806323b872dd1461018d57806340d097c3146101a057806342842e0e146101b35780636352211e146101c657600080fd5b806301ffc9a71461011057806306fdde0314610138578063081812fc1461014d578063095ea7b314610178575b600080fd5b61012361011e366004610c0b565b61027a565b60405190151581526020015b60405180910390f35b6101406102cc565b60405161012f9190610c75565b61016061015b366004610c88565b61035e565b6040516001600160a01b03909116815260200161012f565b61018b610186366004610cbd565b610387565b005b61018b61019b366004610ce7565b610396565b61018b6101ae366004610d23565b610426565b61018b6101c1366004610ce7565b610447565b6101606101d4366004610c88565b610467565b6101ec6101e7366004610d23565b610472565b60405190815260200161012f565b61018b6104ba565b6006546001600160a01b0316610160565b6101406104ce565b61018b610229366004610d3e565b6104dd565b61018b61023c366004610d90565b6104e8565b61014061024f366004610c88565b6104ff565b610123610262366004610e6c565b61059d565b61018b610275366004610d23565b6105cb565b60006001600160e01b031982166380ac58cd60e01b14806102ab57506001600160e01b03198216635b5e139f60e01b145b806102c657506301ffc9a760e01b6001600160e01b03198316145b92915050565b6060600080546102db90610e9f565b80601f016020809104026020016040519081016040528092919081815260200182805461030790610e9f565b80156103545780601f1061032957610100808354040283529160200191610354565b820191906000526020600020905b81548152906001019060200180831161033757829003601f168201915b5050505050905090565b600061036982610609565b506000828152600460205260409020546001600160a01b03166102c6565b610392828233610642565b5050565b6001600160a01b0382166103c557604051633250574960e11b8152600060048201526024015b60405180910390fd5b60006103d283833361064f565b9050836001600160a01b0316816001600160a01b031614610420576040516364283d7b60e01b81526001600160a01b03808616600483015260248201849052821660448201526064016103bc565b50505050565b600880546000918261043783610ed9565b9190505590506103928282610748565b610462838383604051806020016040528060008152506104e8565b505050565b60006102c682610609565b60006001600160a01b03821661049e576040516322718ad960e21b8152600060048201526024016103bc565b506001600160a01b031660009081526003602052604090205490565b6104c2610762565b6104cc600061078f565b565b6060600180546102db90610e9f565b6103923383836107e1565b6104f3848484610396565b61042084848484610880565b606061050a82610609565b506007805461051890610e9f565b80601f016020809104026020016040519081016040528092919081815260200182805461054490610e9f565b80156105915780601f1061056657610100808354040283529160200191610591565b820191906000526020600020905b81548152906001019060200180831161057457829003601f168201915b50505050509050919050565b6001600160a01b03918216600090815260056020908152604080832093909416825291909152205460ff1690565b6105d3610762565b6001600160a01b0381166105fd57604051631e4fbdf760e01b8152600060048201526024016103bc565b6106068161078f565b50565b6000818152600260205260408120546001600160a01b0316806102c657604051637e27328960e01b8152600481018490526024016103bc565b61046283838360016109a9565b6000828152600260205260408120546001600160a01b039081169083161561067c5761067c818486610aaf565b6001600160a01b038116156106ba576106996000856000806109a9565b6001600160a01b038116600090815260036020526040902080546000190190555b6001600160a01b038516156106e9576001600160a01b0385166000908152600360205260409020805460010190555b60008481526002602052604080822080546001600160a01b0319166001600160a01b0389811691821790925591518793918516917fddf252ad1be2c89b69c2b068fc378daa952ba7f163c4a11628f55a4df523b3ef91a4949350505050565b610392828260405180602001604052806000815250610b13565b6006546001600160a01b031633146104cc5760405163118cdaa760e01b81523360048201526024016103bc565b600680546001600160a01b038381166001600160a01b0319831681179093556040519116919082907f8be0079c531659141344cd1fd0a4f28419497f9722a3daafe3b4186f6b6457e090600090a35050565b6001600160a01b03821661081357604051630b61174360e31b81526001600160a01b03831660048201526024016103bc565b6001600160a01b03838116600081815260056020908152604080832094871680845294825291829020805460ff191686151590811790915591519182527f17307eab39ab6107e8899845ad3d59bd9653f200f220920489ca2b5937696c31910160405180910390a3505050565b6001600160a01b0383163b1561042057604051630a85bd0160e11b81526001600160a01b0384169063150b7a02906108c2903390889087908790600401610f00565b6020604051808303816000875af19250505080156108fd575060408051601f3d908101601f191682019092526108fa91810190610f3d565b60015b610966573d80801561092b576040519150601f19603f3d011682016040523d82523d6000602084013e610930565b606091505b50805160000361095e57604051633250574960e11b81526001600160a01b03851660048201526024016103bc565b805181602001fd5b6001600160e01b03198116630a85bd0160e11b146109a257604051633250574960e11b81526001600160a01b03851660048201526024016103bc565b5050505050565b80806109bd57506001600160a01b03821615155b15610a7f5760006109cd84610609565b90506001600160a01b038316158015906109f95750826001600160a01b0316816001600160a01b031614155b8015610a0c5750610a0a818461059d565b155b15610a355760405163a9fbf51f60e01b81526001600160a01b03841660048201526024016103bc565b8115610a7d5783856001600160a01b0316826001600160a01b03167f8c5be1e5ebec7d5bd14f71427d1e84f3dd0314c0f7b2291e5b200ac8c7c3b92560405160405180910390a45b505b5050600090815260046020526040902080546001600160a01b0319166001600160a01b0392909216919091179055565b610aba838383610b2a565b610462576001600160a01b038316610ae857604051637e27328960e01b8152600481018290526024016103bc565b60405163177e802f60e01b81526001600160a01b0383166004820152602481018290526044016103bc565b610b1d8383610b90565b6104626000848484610880565b60006001600160a01b03831615801590610b885750826001600160a01b0316846001600160a01b03161480610b645750610b64848461059d565b80610b8857506000828152600460205260409020546001600160a01b038481169116145b949350505050565b6001600160a01b038216610bba57604051633250574960e11b8152600060048201526024016103bc565b6000610bc88383600061064f565b90506001600160a01b03811615610462576040516339e3563760e11b8152600060048201526024016103bc565b6001600160e01b03198116811461060657600080fd5b600060208284031215610c1d57600080fd5b8135610c2881610bf5565b9392505050565b6000815180845260005b81811015610c5557602081850181015186830182015201610c39565b506000602082860101526020601f19601f83011685010191505092915050565b602081526000610c286020830184610c2f565b600060208284031215610c9a57600080fd5b5035919050565b80356001600160a01b0381168114610cb857600080fd5b919050565b60008060408385031215610cd057600080fd5b610cd983610ca1565b946020939093013593505050565b600080600060608486031215610cfc57600080fd5b610d0584610ca1565b9250610d1360208501610ca1565b9150604084013590509250925092565b600060208284031215610d3557600080fd5b610c2882610ca1565b60008060408385031215610d5157600080fd5b610d5a83610ca1565b915060208301358015158114610d6f57600080fd5b809150509250929050565b634e487b7160e01b600052604160045260246000fd5b60008060008060808587031215610da657600080fd5b610daf85610ca1565b9350610dbd60208601610ca1565b925060408501359150606085013567ffffffffffffffff80821115610de157600080fd5b818701915087601f830112610df557600080fd5b813581811115610e0757610e07610d7a565b604051601f8201601f19908116603f01168101908382118183101715610e2f57610e2f610d7a565b816040528281528a6020848701011115610e4857600080fd5b82602086016020830137600060208483010152809550505050505092959194509250565b60008060408385031215610e7f57600080fd5b610e8883610ca1565b9150610e9660208401610ca1565b90509250929050565b600181811c90821680610eb357607f821691505b602082108103610ed357634e487b7160e01b600052602260045260246000fd5b50919050565b600060018201610ef957634e487b7160e01b600052601160045260246000fd5b5060010190565b6001600160a01b0385811682528416602082015260408101839052608060608201819052600090610f3390830184610c2f565b9695505050505050565b600060208284031215610f4f57600080fd5b8151610c2881610bf556fea2646970667358221220905a334cf79d64b966385cc872b9f841d593ebb664c54d5577d535ab638cf68f64736f6c63430008180033",
  "linkReferences": {},
  "deployedLinkReferences": {}
}