{
  "_format": "hh-sol-artifact-1",
  "contractName": "CollectorFactory",
  "sourceName": "contracts/CollectorFactory.sol",
  "abi": [
    {
      "inputs": [],
      "stateMutability": "nonpayable",
      "type": "constructor"
    },
    {
      "inputs": [],
      "name": "CollectorNotFound",
      "type": "error"
    },
    {
      "inputs": [],
      "name": "InvalidCollectorOwner",
      "type": "error"
    },
    {
      "inputs": [],
      "name": "InvalidCreator",
      "type": "error"
    },
    {
      "inputs": [],
      "name": "InvalidProvider",
      "type": "error"
    },
    {
      "inputs": [],
      "name": "InvalidScore",
      "type": "error"
    },
    {
      "inputs": [
        {
          "internalType": "address",
          "name": "owner",
          "type": "address"
        }
      ],
      "name": "OwnableInvalidOwner",
      "type": "error"
    },
    {
      "inputs": [
        {
          "internalType": "address",
          "name": "account",
          "type": "address"
        }
      ],
      "name": "OwnableUnauthorizedAccount",
      "type": "error"
    },
    {
      "inputs": [],
      "name": "ReputationRequestAlreadyExist",
      "type": "error"
    },
    {
      "inputs": [],
      "name": "ReputationRequestNotFound",
      "type": "error"
    },
    {
      "anonymous": false,
      "inputs": [
        {
          "indexed": false,
          "internalType": "address",
          "name": "collector",
          "type": "address"
        },
        {
          "indexed": false,
          "internalType": "address",
          "name": "collectorOwner",
          "type": "address"
        }
      ],
      "name": "CollectorCreated",
      "type": "event"
    },
    {
      "anonymous": false,
      "inputs": [
        {
          "indexed": false,
          "internalType": "address",
          "name": "collector",
          "type": "address"
        },
        {
          "indexed": false,
          "internalType": "bool",
          "name": "active",
          "type": "bool"
        }
      ],
      "name": "CollectorCreatorChanged",
      "type": "event"
    },
    {
      "anonymous": false,
      "inputs": [
        {
          "indexed": false,
          "internalType": "address",
          "name": "collector",
          "type": "address"
        },
        {
          "indexed": false,
          "internalType": "bool",
          "name": "validity",
          "type": "bool"
        }
      ],
      "name": "CollectorValidityChanged",
      "type": "event"
    },
    {
      "anonymous": false,
      "inputs": [
        {
          "indexed": true,
          "internalType": "address",
          "name": "previousOwner",
          "type": "address"
        },
        {
          "indexed": true,
          "internalType": "address",
          "name": "newOwner",
          "type": "address"
        }
      ],
      "name": "OwnershipTransferred",
      "type": "event"
    },
    {
      "anonymous": false,
      "inputs": [
        {
          "indexed": false,
          "internalType": "address",
          "name": "reputationProvider",
          "type": "address"
        },
        {
          "indexed": false,
          "internalType": "bool",
          "name": "active",
          "type": "bool"
        }
      ],
      "name": "ReputationProviderChanged",
      "type": "event"
    },
    {
      "anonymous": false,
      "inputs": [
        {
          "indexed": false,
          "internalType": "address",
          "name": "collector",
          "type": "address"
        },
        {
          "indexed": false,
          "internalType": "address",
          "name": "dataProvider",
          "type": "address"
        },
        {
          "indexed": false,
          "internalType": "uint256",
          "name": "timestamp",
          "type": "uint256"
        }
      ],
      "name": "ReputationRequestCreated",
      "type": "event"
    },
    {
      "anonymous": false,
      "inputs": [
        {
          "indexed": false,
          "internalType": "address",
          "name": "collector",
          "type": "address"
        },
        {
          "indexed": false,
          "internalType": "address",
          "name": "dataProvider",
          "type": "address"
        },
        {
          "indexed": false,
          "internalType": "uint256",
          "name": "score",
          "type": "uint256"
        }
      ],
      "name": "ReputationScoreProvided",
      "type": "event"
    },
    {
      "inputs": [
        {
          "internalType": "address",
          "name": "",
          "type": "address"
        }
      ],
      "name": "collectorList",
      "outputs": [
        {
          "internalType": "address",
          "name": "collectorAddress",
          "type": "address"
        },
        {
          "internalType": "address",
          "name": "collectorOwner",
          "type": "address"
        },
        {
          "internalType": "uint256",
          "name": "timestamp",
          "type": "uint256"
        },
        {
          "internalType": "bool",
          "name": "validity",
          "type": "bool"
        }
      ],
      "stateMutability": "view",
      "type": "function"
    },
    {
      "inputs": [
        {
          "internalType": "uint256",
          "name": "",
          "type": "uint256"
        }
      ],
      "name": "collectors",
      "outputs": [
        {
          "internalType": "address",
          "name": "",
          "type": "address"
        }
      ],
      "stateMutability": "view",
      "type": "function"
    },
    {
      "inputs": [
        {
          "internalType": "contract IERC721",
          "name": "nft_",
          "type": "address"
        },
        {
          "internalType": "uint256",
          "name": "feePerDay_",
          "type": "uint256"
        },
        {
          "internalType": "uint256",
          "name": "collectorFee_",
          "type": "uint256"
        }
      ],
      "name": "createCollector",
      "outputs": [
        {
          "internalType": "address",
          "name": "",
          "type": "address"
        }
      ],
      "stateMutability": "nonpayable",
      "type": "function"
    },
    {
      "inputs": [
        {
          "internalType": "address",
          "name": "",
          "type": "address"
        }
      ],
      "name": "creatorList",
      "outputs": [
        {
          "internalType": "bool",
          "name": "",
          "type": "bool"
        }
      ],
      "stateMutability": "view",
      "type": "function"
    },
    {
      "inputs": [
        {
          "internalType": "address",
          "name": "collector",
          "type": "address"
        },
        {
          "internalType": "address",
          "name": "dataProvider",
          "type": "address"
        }
      ],
      "name": "getReputationScore",
      "outputs": [
        {
          "internalType": "uint256",
          "name": "",
          "type": "uint256"
        }
      ],
      "stateMutability": "view",
      "type": "function"
    },
    {
      "inputs": [
        {
          "internalType": "address",
          "name": "collector",
          "type": "address"
        },
        {
          "internalType": "bool",
          "name": "active",
          "type": "bool"
        }
      ],
      "name": "handleCollectorCreator",
      "outputs": [],
      "stateMutability": "nonpayable",
      "type": "function"
    },
    {
      "inputs": [
        {
          "internalType": "address",
          "name": "collector",
          "type": "address"
        },
        {
          "internalType": "bool",
          "name": "validity",
          "type": "bool"
        }
      ],
      "name": "handleCollectorValidity",
      "outputs": [],
      "stateMutability": "nonpayable",
      "type": "function"
    },
    {
      "inputs": [
        {
          "internalType": "address",
          "name": "reputationProvider",
          "type": "address"
        },
        {
          "internalType": "bool",
          "name": "active",
          "type": "bool"
        }
      ],
      "name": "handleReputationProvider",
      "outputs": [],
      "stateMutability": "nonpayable",
      "type": "function"
    },
    {
      "inputs": [
        {
          "internalType": "bool",
          "name": "validation",
          "type": "bool"
        }
      ],
      "name": "listCollectorsByValidation",
      "outputs": [
        {
          "components": [
            {
              "internalType": "address",
              "name": "collectorAddress",
              "type": "address"
            },
            {
              "internalType": "address",
              "name": "collectorOwner",
              "type": "address"
            },
            {
              "internalType": "uint256",
              "name": "timestamp",
              "type": "uint256"
            },
            {
              "internalType": "bool",
              "name": "validity",
              "type": "bool"
            }
          ],
          "internalType": "struct CollectorFactory.CollectorInfo[]",
          "name": "",
          "type": "tuple[]"
        }
      ],
      "stateMutability": "view",
      "type": "function"
    },
    {
      "inputs": [],
      "name": "owner",
      "outputs": [
        {
          "internalType": "address",
          "name": "",
          "type": "address"
        }
      ],
      "stateMutability": "view",
      "type": "function"
    },
    {
      "inputs": [],
      "name": "renounceOwnership",
      "outputs": [],
      "stateMutability": "nonpayable",
      "type": "function"
    },
    {
      "inputs": [
        {
          "internalType": "address",
          "name": "",
          "type": "address"
        }
      ],
      "name": "reputationProviders",
      "outputs": [
        {
          "internalType": "bool",
          "name": "",
          "type": "bool"
        }
      ],
      "stateMutability": "view",
      "type": "function"
    },
    {
      "inputs": [
        {
          "internalType": "address",
          "name": "",
          "type": "address"
        },
        {
          "internalType": "address",
          "name": "",
          "type": "address"
        }
      ],
      "name": "reputationRequest",
      "outputs": [
        {
          "internalType": "bool",
          "name": "",
          "type": "bool"
        }
      ],
      "stateMutability": "view",
      "type": "function"
    },
    {
      "inputs": [
        {
          "internalType": "address",
          "name": "",
          "type": "address"
        },
        {
          "internalType": "address",
          "name": "",
          "type": "address"
        }
      ],
      "name": "reputationScores",
      "outputs": [
        {
          "internalType": "uint256",
          "name": "",
          "type": "uint256"
        }
      ],
      "stateMutability": "view",
      "type": "function"
    },
    {
      "inputs": [
        {
          "internalType": "address",
          "name": "collector",
          "type": "address"
        },
        {
          "internalType": "address",
          "name": "dataProvider",
          "type": "address"
        }
      ],
      "name": "requestReputation",
      "outputs": [],
      "stateMutability": "nonpayable",
      "type": "function"
    },
    {
      "inputs": [
        {
          "internalType": "address",
          "name": "collector",
          "type": "address"
        },
        {
          "internalType": "address",
          "name": "dataProvider",
          "type": "address"
        },
        {
          "internalType": "uint256",
          "name": "score",
          "type": "uint256"
        }
      ],
      "name": "storeReputationScore",
      "outputs": [],
      "stateMutability": "nonpayable",
      "type": "function"
    },
    {
      "inputs": [
        {
          "internalType": "address",
          "name": "newOwner",
          "type": "address"
        }
      ],
      "name": "transferOwnership",
      "outputs": [],
      "stateMutability": "nonpayable",
      "type": "function"
    }
  ],
  "bytecode": "0x608060405234801561001057600080fd5b50338061003757604051631e4fbdf760e01b81526000600482015260240160405180910390fd5b61004081610046565b50610096565b600080546001600160a01b038381166001600160a01b0319831681178455604051919092169283917f8be0079c531659141344cd1fd0a4f28419497f9722a3daafe3b4186f6b6457e09190a35050565b61271a806100a56000396000f3fe60806040523480156200001157600080fd5b5060043610620001215760003560e01c80638da5cb5b11620000af578063e16cd55b116200007a578063e16cd55b1462000325578063e37b09d5146200034b578063e3a82eb81462000379578063f2fde38b1462000390578063fb7cba3d14620003a757600080fd5b80638da5cb5b14620002b45780639c439d0014620002c6578063afa60a0014620002f7578063b3e224b6146200030e57600080fd5b806352bf2cca11620000f057806352bf2cca14620002225780636f2701f11462000248578063715018a6146200025f578063736373af146200026957600080fd5b8063115b1570146200012657806318ca0931146200016157806319b457251462000191578063252e425f14620001aa575b600080fd5b6200014c6200013736600462000c1f565b60066020526000908152604090205460ff1681565b60405190151581526020015b60405180910390f35b620001786200017236600462000c46565b620003be565b6040516001600160a01b03909116815260200162000158565b620001a8620001a236600462000c94565b6200054a565b005b620001f4620001bb36600462000c1f565b600360208190526000918252604090912080546001820154600283015492909301546001600160a01b0391821693909116919060ff1684565b604080516001600160a01b039586168152949093166020850152918301521515606082015260800162000158565b6200014c6200023336600462000c1f565b60016020526000908152604090205460ff1681565b620001a86200025936600462000cce565b620005b8565b620001a8620006dc565b620002a56200027a36600462000d14565b6001600160a01b03918216600090815260056020908152604080832093909416825291909152205490565b60405190815260200162000158565b6000546001600160a01b031662000178565b6200014c620002d736600462000d14565b600460209081526000928352604080842090915290825290205460ff1681565b620001a86200030836600462000d14565b620006f4565b620001786200031f36600462000d52565b62000828565b6200033c6200033636600462000d6c565b62000853565b60405162000158919062000d8a565b620002a56200035c36600462000d14565b600560209081526000928352604080842090915290825290205481565b620001a86200038a36600462000c94565b62000a63565b620001a8620003a136600462000c1f565b62000acd565b620001a8620003b836600462000c94565b62000b15565b3360008181526006602052604081205490919060ff16620003f2576040516332db94d160e21b815260040160405180910390fd5b600033868686604051620004069062000bfb565b6001600160a01b03948516815293909216602084015260408301526060820152608001604051809103906000f08015801562000446573d6000803e3d6000fd5b5060028054600180820183557f405787fa12a823e0f2b7631cc41b3ba8828b3321ca811111fa75cd3aa3bb5ace90910180546001600160a01b03199081166001600160a01b038681169182179093556040805160808101825282815233602080830182815242848601908152606085018a81526000888152600380865290889020965187548b16908c1617875592519a860180549099169a90991699909917909655965197820197909755935193909201805460ff1916931515939093179092558051918252918101929092529192507f9987f1677832d9b3033589824b2e0106bde3a66767ba3bc11d17ff19ad159553910160405180910390a195945050505050565b6200055462000b7c565b6001600160a01b038216600081815260016020908152604091829020805460ff19168515159081179091558251938452908301527fc98246ea88b46eab6b4e2a8e3039fd71ac1650c8eb69ac5409cb91eea558ceba91015b60405180910390a15050565b6001600160a01b0380841660009081526004602090815260408083209386168352929052205460ff16620005ff5760405163c0302bef60e01b815260040160405180910390fd5b3360009081526001602052604090205460ff166200063057604051633b136dc160e11b815260040160405180910390fd5b60648111156200065357604051631556136560e01b815260040160405180910390fd5b6001600160a01b03838116600081815260056020908152604080832094871680845294825280832086905583835260048252808320858452825291829020805460ff1916905581519283528201929092529081018290527f9b474d521a45aa6fe2f64372e6f0f7d670fb1b1ac476f48b895582767e920dab9060600160405180910390a1505050565b620006e662000b7c565b620006f2600062000bab565b565b6001600160a01b0382166000908152600360205260408120600201549003620007305760405163080526f360e31b815260040160405180910390fd5b6001600160a01b038281166000908152600360205260409020600101541633146200076e57604051635e2392f760e11b815260040160405180910390fd5b6001600160a01b0380831660009081526004602090815260408083209385168352929052205460ff1615620007b6576040516324e234e960e01b815260040160405180910390fd5b6001600160a01b03828116600081815260046020908152604080832094861680845294825291829020805460ff19166001179055815192835282019290925242918101919091527f43645670f3b28c1d7dda77a152974bd58fe58b0774b1f596a2300b36efec74f590606001620005ac565b600281815481106200083957600080fd5b6000918252602090912001546001600160a01b0316905081565b60606000805b600254811015620008cd57831515600360006002848154811062000881576200088162000dfe565b60009182526020808320909101546001600160a01b0316835282019290925260400190206003015460ff16151503620008c45781620008c08162000e14565b9250505b60010162000859565b5060008167ffffffffffffffff811115620008ec57620008ec62000e3c565b6040519080825280602002602001820160405280156200094057816020015b6040805160808101825260008082526020808301829052928201819052606082015282526000199092019101816200090b5790505b5090506000805b60025481101562000a595785151560036000600284815481106200096f576200096f62000dfe565b60009182526020808320909101546001600160a01b0316835282019290925260400190206003015460ff1615150362000a50576003600060028381548110620009bc57620009bc62000dfe565b60009182526020808320909101546001600160a01b03908116845283820194909452604092830190912082516080810184528154851681526001820154909416918401919091526002810154918301919091526003015460ff1615156060820152835184908490811062000a345762000a3462000dfe565b6020026020010181905250818062000a4c9062000e14565b9250505b60010162000947565b5090949350505050565b62000a6d62000b7c565b6001600160a01b038216600081815260036020818152604092839020909101805460ff19168515159081179091558251938452908301527fedf1b5195c918214c00fbaf61db78e97ded490def92d3e7911efb420c3186ad29101620005ac565b62000ad762000b7c565b6001600160a01b03811662000b0757604051631e4fbdf760e01b8152600060048201526024015b60405180910390fd5b62000b128162000bab565b50565b62000b1f62000b7c565b6001600160a01b038216600081815260066020908152604091829020805460ff19168515159081179091558251938452908301527f26f4d50b5f8ccb0a0593149470d0ababae355accbe102bf6038a9a2cd32e398b9101620005ac565b6000546001600160a01b03163314620006f25760405163118cdaa760e01b815233600482015260240162000afe565b600080546001600160a01b038381166001600160a01b0319831681178455604051919092169283917f8be0079c531659141344cd1fd0a4f28419497f9722a3daafe3b4186f6b6457e09190a35050565b6118928062000e5383390190565b6001600160a01b038116811462000b1257600080fd5b60006020828403121562000c3257600080fd5b813562000c3f8162000c09565b9392505050565b60008060006060848603121562000c5c57600080fd5b833562000c698162000c09565b95602085013595506040909401359392505050565b8035801515811462000c8f57600080fd5b919050565b6000806040838503121562000ca857600080fd5b823562000cb58162000c09565b915062000cc56020840162000c7e565b90509250929050565b60008060006060848603121562000ce457600080fd5b833562000cf18162000c09565b9250602084013562000d038162000c09565b929592945050506040919091013590565b6000806040838503121562000d2857600080fd5b823562000d358162000c09565b9150602083013562000d478162000c09565b809150509250929050565b60006020828403121562000d6557600080fd5b5035919050565b60006020828403121562000d7f57600080fd5b62000c3f8262000c7e565b602080825282518282018190526000919060409081850190868401855b8281101562000df157815180516001600160a01b03908116865287820151168786015285810151868601526060908101511515908501526080909301929085019060010162000da7565b5091979650505050505050565b634e487b7160e01b600052603260045260246000fd5b60006001820162000e3557634e487b7160e01b600052601160045260246000fd5b5060010190565b634e487b7160e01b600052604160045260246000fdfe60a06040523480156200001157600080fd5b506040516200189238038062001892833981016040819052620000349162000120565b836001600160a01b0381166200006457604051631e4fbdf760e01b81526000600482015260240160405180910390fd5b6200006f81620000b7565b50600180556001600160a01b0383166200009c5760405163d92e233d60e01b815260040160405180910390fd5b6001600160a01b03909216608052600255600355506200016d565b600080546001600160a01b038381166001600160a01b0319831681178455604051919092169283917f8be0079c531659141344cd1fd0a4f28419497f9722a3daafe3b4186f6b6457e09190a35050565b6001600160a01b03811681146200011d57600080fd5b50565b600080600080608085870312156200013757600080fd5b8451620001448162000107565b6020860151909450620001578162000107565b6040860151606090960151949790965092505050565b6080516116ed620001a5600039600081816101560152818161058d015281816107ba01528181610b030152610e3501526116ed6000f3fe6080604052600436106101095760003560e01c806372cb3e8211610095578063a322f94811610064578063a322f948146102e2578063ac5c7c5314610302578063d9ef52d114610332578063f103eaaf14610347578063f2fde38b1461035d57600080fd5b806372cb3e821461027657806386779b521461029a5780638da5cb5b146102ad578063968ba8ef146102cb57600080fd5b80636207d31b116100dc5780636207d31b146101e0578063692a8a801461020e5780636ae5c9b01461022e5780636b6c616d1461024e578063715018a61461026157600080fd5b806307e7080a1461010e57806347ccca02146101445780635f5bafcc146101905780635fd5bffd146101be575b600080fd5b34801561011a57600080fd5b5061012e610129366004611153565b61037d565b60405161013b91906111b4565b60405180910390f35b34801561015057600080fd5b506101787f000000000000000000000000000000000000000000000000000000000000000081565b6040516001600160a01b03909116815260200161013b565b34801561019c57600080fd5b506101b06101ab366004611233565b610499565b60405161013b92919061125d565b3480156101ca57600080fd5b506101de6101d936600461129a565b610569565b005b3480156101ec57600080fd5b506102006101fb3660046112cd565b6106eb565b60405161013b9291906112f7565b34801561021a57600080fd5b506101de610229366004611310565b610718565b34801561023a57600080fd5b506101de610249366004611310565b610753565b6101de61025c3660046113cc565b61078e565b34801561026d57600080fd5b506101de610ac3565b34801561028257600080fd5b5061028c60025481565b60405190815260200161013b565b6101de6102a8366004611423565b610ad7565b3480156102b957600080fd5b506000546001600160a01b0316610178565b3480156102d757600080fd5b5061028c6201518081565b3480156102ee57600080fd5b506101de6102fd36600461129a565b610dc3565b34801561030e57600080fd5b5061028c61031d366004611153565b6006602052600090815260409020600a015481565b34801561033e57600080fd5b5061028c600a81565b34801561035357600080fd5b5061028c60035481565b34801561036957600080fd5b506101de610378366004611153565b610f2a565b6001600160a01b0381166000908152600560209081526040808320805482518185028101850190935280835260609492939192909184015b8282101561048e576000848152602090819020604080518082019091526002850290910180546001600160a01b0316825260018101805492939192918401916103fd9061148b565b80601f01602080910402602001604051908101604052809291908181526020018280546104299061148b565b80156104765780601f1061044b57610100808354040283529160200191610476565b820191906000526020600020905b81548152906001019060200180831161045957829003601f168201915b505050505081525050815260200190600101906103b5565b505050509050919050565b600560205281600052604060002081815481106104b557600080fd5b6000918252602090912060029091020180546001820180546001600160a01b0390921694509192506104e69061148b565b80601f01602080910402602001604051908101604052809291908181526020018280546105129061148b565b801561055f5780601f106105345761010080835404028352916020019161055f565b820191906000526020600020905b81548152906001019060200180831161054257829003601f168201915b5050505050905082565b6040516370a0823160e01b81526001600160a01b03808416600483015283916000917f000000000000000000000000000000000000000000000000000000000000000016906370a0823190602401602060405180830381865afa1580156105d4573d6000803e3d6000fd5b505050506040513d601f19601f820116820180604052508101906105f891906114c5565b90508060000361061b57604051636af73fb160e11b815260040160405180910390fd5b3360009081526004602090815260408083206001600160a01b03881684529091528120805490910361066057604051631a00354f60e01b815260040160405180910390fd5b8054421061068157604051636406fa1560e01b815260040160405180910390fd5b61068c853386610f6d565b60408051602081019091526000815260018201906106aa908261152e565b50600080825560405133916001600160a01b038816917f4f63ff9c987ba9233a93b549bdb283252838f696fe1349ef76a85e2ae7f822e39190a35050505050565b6004602090815260009283526040808420909152908252902080546001820180549192916104e69061148b565b610720611076565b600381905560405181907f526f715cfc9d0f558989a57a9e26f5a05ac1042d2325f75d59bb381fa2a47de290600090a250565b61075b611076565b600281905560405181907feb144f1c5f6ec578479c4044f98979b433ee3348bf4c1eecb39f0e7e3fdb3c8b90600090a250565b6107966110a3565b6040516370a0823160e01b81526001600160a01b03808516600483015284916000917f000000000000000000000000000000000000000000000000000000000000000016906370a0823190602401602060405180830381865afa158015610801573d6000803e3d6000fd5b505050506040513d601f19601f8201168201806040525081019061082591906114c5565b90508060000361084857604051636af73fb160e11b815260040160405180910390fd5b3360009081526004602090815260408083206001600160a01b0389168452909152902080541561088b57604051632fec509960e11b815260040160405180910390fd5b426108996201518082611604565b8510156108b9576040516349cb49f560e01b815260040160405180910390fd5b60006108c58287611617565b9050600062015180600254836108db919061162a565b6108e59190611657565b9050600354816108f59190611604565b3410156109155760405163d90d516f60e01b815260040160405180910390fd5b600080546003546040516001600160a01b039092169281156108fc029290818181858888f19350505050158015610950573d6000803e3d6000fd5b506040516001600160a01b038a169082156108fc029083906000818181858888f19350505050158015610987573d6000803e3d6000fd5b506003546109959082611604565b3411156109e35760035433906108fc906109af9084611604565b6109b99034611617565b6040518115909202916000818181858888f193505050501580156109e1573d6000803e3d6000fd5b505b6001600160a01b03898116600090815260056020908152604080832081518083019092523382528183018d815281546001808201845592865293909420825160029094020180546001600160a01b03191693909516929092178455915191929190820190610a51908261152e565b50505060018401610a62898261152e565b50868455604051879033906001600160a01b038c16907fa096d55fe0953227eb38bd4cae5ab7f659a80d663b3b9e889999e9c90891423d90610aa7908d90899061166b565b60405180910390a4505050505050610abe60018055565b505050565b610acb611076565b610ad560006110cd565b565b610adf6110a3565b6040516370a0823160e01b81526001600160a01b03808616600483015285916000917f000000000000000000000000000000000000000000000000000000000000000016906370a0823190602401602060405180830381865afa158015610b4a573d6000803e3d6000fd5b505050506040513d601f19601f82011682018060405250810190610b6e91906114c5565b905080600003610b9157604051636af73fb160e11b815260040160405180910390fd5b3360009081526004602090815260408083206001600160a01b038a16845290915281208054909142919003610bd957604051631a00354f60e01b815260040160405180910390fd5b6000610be983600001548361111d565b9050610bf86201518082611604565b871015610c18576040516349cb49f560e01b815260040160405180910390fd5b6000610c248289611617565b905060006201518060025483610c3a919061162a565b610c449190611657565b905060035481610c549190611604565b341015610c745760405163d90d516f60e01b815260040160405180910390fd5b600080546003546040516001600160a01b039092169281156108fc029290818181858888f19350505050158015610caf573d6000803e3d6000fd5b506040516001600160a01b038c169082156108fc029083906000818181858888f19350505050158015610ce6573d6000803e3d6000fd5b50600354610cf49082611604565b341115610d425760035433906108fc90610d0e9084611604565b610d189034611617565b6040518115909202916000818181858888f19350505050158015610d40573d6000803e3d6000fd5b505b610d4d8b338a610f6d565b88855560018501610d5e8b8261152e565b5088336001600160a01b03168c6001600160a01b03167f7e8eb2c1af97a3780b1a02bef48aa99bd50f08bae7654aabcbab9f3bc4ee0f7b8d42604051610da592919061166b565b60405180910390a450505050505050610dbd60018055565b50505050565b3360009081526004602090815260408083206001600160a01b038616845290915281208054909103610e0857604051631a00354f60e01b815260040160405180910390fd5b805442108015610ea457506040516370a0823160e01b81526001600160a01b0384811660048301526000917f0000000000000000000000000000000000000000000000000000000000000000909116906370a0823190602401602060405180830381865afa158015610e7e573d6000803e3d6000fd5b505050506040513d601f19601f82011682018060405250810190610ea291906114c5565b115b15610ec25760405163dff2758760e01b815260040160405180910390fd5b610ecd833384610f6d565b6040805160208101909152600081526001820190610eeb908261152e565b50600080825560405133916001600160a01b038616917fa36e542773a934d56325c3a8d3df287cc118d14dc700c17f406523f1f6447ca59190a3505050565b610f32611076565b6001600160a01b038116610f6157604051631e4fbdf760e01b8152600060048201526024015b60405180910390fd5b610f6a816110cd565b50565b8060648160ff161115610f93576040516303ea000960e61b815260040160405180910390fd5b6001600160a01b038085166000908152600660209081526040918290208251808401909352928616825260ff851690820152600a8083015483918110610fdb57610fdb61168d565b82519101805460209093015160ff16600160a01b026001600160a81b03199093166001600160a01b0390921691909117919091179055600a81810154611022906001611604565b61102c91906116a3565b600a82015560405160ff8416906001600160a01b0380871691908816907f44aedcfa4237cfb29d0f6850597741cb4f40c25e45b4265264100c7c1156675790600090a45050505050565b6000546001600160a01b03163314610ad55760405163118cdaa760e01b8152336004820152602401610f58565b6002600154036110c657604051633ee5aeb560e01b815260040160405180910390fd5b6002600155565b600080546001600160a01b038381166001600160a01b0319831681178455604051919092169283917f8be0079c531659141344cd1fd0a4f28419497f9722a3daafe3b4186f6b6457e09190a35050565b600081831161112c578161112e565b825b90505b92915050565b80356001600160a01b038116811461114e57600080fd5b919050565b60006020828403121561116557600080fd5b61112e82611137565b6000815180845260005b8181101561119457602081850181015186830182015201611178565b506000602082860101526020601f19601f83011685010191505092915050565b600060208083018184528085518083526040925060408601915060408160051b87010184880160005b8381101561122557888303603f19018552815180516001600160a01b031684528701518784018790526112128785018261116e565b95880195935050908601906001016111dd565b509098975050505050505050565b6000806040838503121561124657600080fd5b61124f83611137565b946020939093013593505050565b6001600160a01b03831681526040602082018190526000906112819083018461116e565b949350505050565b803560ff8116811461114e57600080fd5b600080604083850312156112ad57600080fd5b6112b683611137565b91506112c460208401611289565b90509250929050565b600080604083850312156112e057600080fd5b6112e983611137565b91506112c460208401611137565b828152604060208201526000611281604083018461116e565b60006020828403121561132257600080fd5b5035919050565b634e487b7160e01b600052604160045260246000fd5b600082601f83011261135057600080fd5b813567ffffffffffffffff8082111561136b5761136b611329565b604051601f8301601f19908116603f0116810190828211818310171561139357611393611329565b816040528381528660208588010111156113ac57600080fd5b836020870160208301376000602085830101528094505050505092915050565b6000806000606084860312156113e157600080fd5b6113ea84611137565b9250602084013567ffffffffffffffff81111561140657600080fd5b6114128682870161133f565b925050604084013590509250925092565b6000806000806080858703121561143957600080fd5b61144285611137565b9350602085013567ffffffffffffffff81111561145e57600080fd5b61146a8782880161133f565b9350506040850135915061148060608601611289565b905092959194509250565b600181811c9082168061149f57607f821691505b6020821081036114bf57634e487b7160e01b600052602260045260246000fd5b50919050565b6000602082840312156114d757600080fd5b5051919050565b601f821115610abe576000816000526020600020601f850160051c810160208610156115075750805b601f850160051c820191505b8181101561152657828155600101611513565b505050505050565b815167ffffffffffffffff81111561154857611548611329565b61155c81611556845461148b565b846114de565b602080601f83116001811461159157600084156115795750858301515b600019600386901b1c1916600185901b178555611526565b600085815260208120601f198616915b828110156115c0578886015182559484019460019091019084016115a1565b50858210156115de5787850151600019600388901b60f8161c191681555b5050505050600190811b01905550565b634e487b7160e01b600052601160045260246000fd5b80820180821115611131576111316115ee565b81810381811115611131576111316115ee565b8082028115828204841417611131576111316115ee565b634e487b7160e01b600052601260045260246000fd5b60008261166657611666611641565b500490565b60408152600061167e604083018561116e565b90508260208301529392505050565b634e487b7160e01b600052603260045260246000fd5b6000826116b2576116b2611641565b50069056fea2646970667358221220c6f46ac3b28a2c522da4ec91befe761d3f152b112770a26f5c9c24b2ca43f9e864736f6c63430008180033a2646970667358221220bfb27d0d35061bc367c122bcf6982d5729232ae173069bcd4dba559457f7a4d764736f6c63430008180033",
  "linkReferences": {},
  "deployedLinkReferences": {}
}